{
  "contractName": "FlightSuretyApp",
  "abi": [
    {
      "constant": true,
      "inputs": [],
      "name": "Insurance_FEE",
      "outputs": [
        {
          "name": "",
          "type": "uint256"
        }
      ],
      "payable": false,
      "stateMutability": "view",
      "type": "function"
    },
    {
      "constant": true,
      "inputs": [],
      "name": "REGISTRATION_FEE",
      "outputs": [
        {
          "name": "",
          "type": "uint256"
        }
      ],
      "payable": false,
      "stateMutability": "view",
      "type": "function"
    },
    {
      "constant": true,
      "inputs": [],
      "name": "AirlineRegistrationFee",
      "outputs": [
        {
          "name": "",
          "type": "uint256"
        }
      ],
      "payable": false,
      "stateMutability": "view",
      "type": "function"
    },
    {
      "inputs": [
        {
          "name": "dataContract",
          "type": "address"
        }
      ],
      "payable": false,
      "stateMutability": "nonpayable",
      "type": "constructor"
    },
    {
      "anonymous": false,
      "inputs": [
        {
          "indexed": false,
          "name": "airline",
          "type": "address"
        },
        {
          "indexed": false,
          "name": "flight",
          "type": "string"
        },
        {
          "indexed": false,
          "name": "timestamp",
          "type": "uint256"
        },
        {
          "indexed": false,
          "name": "status",
          "type": "uint8"
        }
      ],
      "name": "FlightStatusInfo",
      "type": "event"
    },
    {
      "anonymous": false,
      "inputs": [
        {
          "indexed": false,
          "name": "airline",
          "type": "address"
        },
        {
          "indexed": false,
          "name": "flight",
          "type": "string"
        },
        {
          "indexed": false,
          "name": "timestamp",
          "type": "uint256"
        },
        {
          "indexed": false,
          "name": "status",
          "type": "uint8"
        }
      ],
      "name": "OracleReport",
      "type": "event"
    },
    {
      "anonymous": false,
      "inputs": [
        {
          "indexed": false,
          "name": "index",
          "type": "uint8"
        },
        {
          "indexed": false,
          "name": "airline",
          "type": "address"
        },
        {
          "indexed": false,
          "name": "flight",
          "type": "string"
        },
        {
          "indexed": false,
          "name": "timestamp",
          "type": "uint256"
        }
      ],
      "name": "OracleRequest",
      "type": "event"
    },
    {
      "constant": false,
      "inputs": [],
      "name": "isOperational",
      "outputs": [
        {
          "name": "",
          "type": "bool"
        }
      ],
      "payable": false,
      "stateMutability": "nonpayable",
      "type": "function"
    },
    {
      "constant": false,
      "inputs": [],
      "name": "getRegistrationCount",
      "outputs": [
        {
          "name": "",
          "type": "uint256"
        }
      ],
      "payable": false,
      "stateMutability": "nonpayable",
      "type": "function"
    },
    {
      "constant": false,
      "inputs": [],
      "name": "getCurrentConsieses",
      "outputs": [
        {
          "name": "",
          "type": "uint256"
        }
      ],
      "payable": false,
      "stateMutability": "nonpayable",
      "type": "function"
    },
    {
      "constant": false,
      "inputs": [
        {
          "name": "addressToCheck",
          "type": "address"
        }
      ],
      "name": "isRegisterAirline",
      "outputs": [
        {
          "name": "registered",
          "type": "bool"
        },
        {
          "name": "hasPaid",
          "type": "bool"
        },
        {
          "name": "votes",
          "type": "uint256"
        }
      ],
      "payable": false,
      "stateMutability": "nonpayable",
      "type": "function"
    },
    {
      "constant": true,
      "inputs": [],
      "name": "contractTime",
      "outputs": [
        {
          "name": "",
          "type": "uint256"
        }
      ],
      "payable": false,
      "stateMutability": "view",
      "type": "function"
    },
    {
      "constant": false,
      "inputs": [
        {
          "name": "flight",
          "type": "string"
        },
        {
          "name": "_timestamp",
          "type": "uint256"
        },
        {
          "name": "airline",
          "type": "address"
        }
      ],
      "name": "getFlightStatus",
      "outputs": [
        {
          "name": "exist",
          "type": "bool"
        },
        {
          "name": "status",
          "type": "uint256"
        },
        {
          "name": "registered",
          "type": "bool"
        },
        {
          "name": "departuretime",
          "type": "uint256"
        },
        {
          "name": "price",
          "type": "uint256"
        }
      ],
      "payable": false,
      "stateMutability": "nonpayable",
      "type": "function"
    },
    {
      "constant": false,
      "inputs": [
        {
          "name": "addressToPromote",
          "type": "address"
        }
      ],
      "name": "promoteAddressFromRegistration",
      "outputs": [],
      "payable": false,
      "stateMutability": "nonpayable",
      "type": "function"
    },
    {
      "constant": false,
      "inputs": [],
      "name": "payRegistrationFee",
      "outputs": [],
      "payable": true,
      "stateMutability": "payable",
      "type": "function"
    },
    {
      "constant": false,
      "inputs": [
        {
          "name": "_flight",
          "type": "string"
        },
        {
          "name": "_timestamp",
          "type": "uint256"
        },
        {
          "name": "_price",
          "type": "uint256"
        }
      ],
      "name": "registerFlight",
      "outputs": [],
      "payable": false,
      "stateMutability": "nonpayable",
      "type": "function"
    },
    {
      "constant": false,
      "inputs": [
        {
          "name": "flight",
          "type": "string"
        },
        {
          "name": "_timestamp",
          "type": "uint256"
        },
        {
          "name": "airline",
          "type": "address"
        }
      ],
      "name": "getTicketPrice",
      "outputs": [
        {
          "name": "",
          "type": "uint256"
        },
        {
          "name": "",
          "type": "uint256"
        }
      ],
      "payable": false,
      "stateMutability": "nonpayable",
      "type": "function"
    },
    {
      "constant": false,
      "inputs": [
        {
          "name": "flight",
          "type": "string"
        },
        {
          "name": "_timestamp",
          "type": "uint256"
        },
        {
          "name": "airline",
          "type": "address"
        },
        {
          "name": "insured",
          "type": "bool"
        }
      ],
      "name": "buyTicket",
      "outputs": [],
      "payable": true,
      "stateMutability": "payable",
      "type": "function"
    },
    {
      "constant": false,
      "inputs": [],
      "name": "receiveCredit",
      "outputs": [],
      "payable": false,
      "stateMutability": "nonpayable",
      "type": "function"
    },
    {
      "constant": false,
      "inputs": [
        {
          "name": "flight",
          "type": "string"
        },
        {
          "name": "_timestamp",
          "type": "uint256"
        },
        {
          "name": "airline",
          "type": "address"
        }
      ],
      "name": "isInsured",
      "outputs": [
        {
          "name": "",
          "type": "bool"
        }
      ],
      "payable": false,
      "stateMutability": "nonpayable",
      "type": "function"
    },
    {
      "constant": false,
      "inputs": [
        {
          "name": "flight",
          "type": "string"
        },
        {
          "name": "_timestamp",
          "type": "uint256"
        },
        {
          "name": "airline",
          "type": "address"
        }
      ],
      "name": "getCredit",
      "outputs": [],
      "payable": false,
      "stateMutability": "nonpayable",
      "type": "function"
    },
    {
      "constant": false,
      "inputs": [],
      "name": "creditAmount",
      "outputs": [
        {
          "name": "",
          "type": "uint256"
        }
      ],
      "payable": false,
      "stateMutability": "nonpayable",
      "type": "function"
    },
    {
      "constant": false,
      "inputs": [
        {
          "name": "airline",
          "type": "address"
        },
        {
          "name": "flight",
          "type": "string"
        },
        {
          "name": "timestamp",
          "type": "uint256"
        }
      ],
      "name": "fetchFlightStatus",
      "outputs": [],
      "payable": false,
      "stateMutability": "nonpayable",
      "type": "function"
    },
    {
      "constant": false,
      "inputs": [],
      "name": "registerOracle",
      "outputs": [],
      "payable": true,
      "stateMutability": "payable",
      "type": "function"
    },
    {
      "constant": false,
      "inputs": [],
      "name": "getMyIndexes",
      "outputs": [
        {
          "name": "",
          "type": "uint8[3]"
        }
      ],
      "payable": false,
      "stateMutability": "nonpayable",
      "type": "function"
    },
    {
      "constant": false,
      "inputs": [
        {
          "name": "index",
          "type": "uint8"
        },
        {
          "name": "airline",
          "type": "address"
        },
        {
          "name": "flight",
          "type": "string"
        },
        {
          "name": "timestamp",
          "type": "uint256"
        },
        {
          "name": "statusCode",
          "type": "uint8"
        }
      ],
      "name": "submitOracleResponse",
      "outputs": [],
      "payable": false,
      "stateMutability": "nonpayable",
      "type": "function"
    }
  ],
  "bytecode": "0x60806040526000600160146101000a81548160ff021916908360ff16021790555034801561002c57600080fd5b5060405160208061521a8339810180604052810190808051906020019092919050505033600160006101000a81548173ffffffffffffffffffffffffffffffffffffffff021916908373ffffffffffffffffffffffffffffffffffffffff160217905550806000806101000a81548173ffffffffffffffffffffffffffffffffffffffff021916908373ffffffffffffffffffffffffffffffffffffffff1602179055505061513a806100e06000396000f300608060405260043610610128576000357c0100000000000000000000000000000000000000000000000000000000900463ffffffff168063157bc7461461012d578063181b8f6f146101925780632432c0f11461022f578063314a4b2014610239578063339d2590146102645780634d0c90f11461026e57806351edbfed1461028557806359bfaee1146102c85780635f1cc0e6146102f357806364b4f7511461034657806366c7b0df1461037157806376a563b5146103f157806378c9e9651461041c5780638cd79d3a1461046b5780639995261a146104cf578063a66d91e6146104fa578063b9bcd12114610525578063c10f270014610550578063cd4ccfdb146105cf578063cd905dff1461063c578063f83f11c01461066b578063fe71579c146106d0575b600080fd5b34801561013957600080fd5b5061019060048036038101908080359060200190820180359060200191909192939192939080359060200190929190803573ffffffffffffffffffffffffffffffffffffffff16906020019092919050505061074d565b005b34801561019e57600080fd5b506101f560048036038101908080359060200190820180359060200191909192939192939080359060200190929190803573ffffffffffffffffffffffffffffffffffffffff1690602001909291905050506109df565b6040518086151515158152602001858152602001841515151581526020018381526020018281526020019550505050505060405180910390f35b610237610c9f565b005b34801561024557600080fd5b5061024e6111b9565b6040518082815260200191505060405180910390f35b61026c6111c5565b005b34801561027a57600080fd5b50610283611454565b005b34801561029157600080fd5b506102c6600480360381019080803573ffffffffffffffffffffffffffffffffffffffff169060200190929190505050611691565b005b3480156102d457600080fd5b506102dd61219a565b6040518082815260200191505060405180910390f35b3480156102ff57600080fd5b506103086123c7565b6040518082600360200280838360005b83811015610333578082015181840152602081019050610318565b5050505090500191505060405180910390f35b34801561035257600080fd5b5061035b6126a3565b6040518082815260200191505060405180910390f35b34801561037d57600080fd5b506103d460048036038101908080359060200190820180359060200191909192939192939080359060200190929190803573ffffffffffffffffffffffffffffffffffffffff1690602001909291905050506126af565b604051808381526020018281526020019250505060405180910390f35b3480156103fd57600080fd5b50610406612943565b6040518082815260200191505060405180910390f35b34801561042857600080fd5b506104696004803603810190808035906020019082018035906020019190919293919293908035906020019092919080359060200190929190505050612b70565b005b6104cd60048036038101908080359060200190820180359060200191909192939192939080359060200190929190803573ffffffffffffffffffffffffffffffffffffffff169060200190929190803515159060200190929190505050613016565b005b3480156104db57600080fd5b506104e461373e565b6040518082815260200191505060405180910390f35b34801561050657600080fd5b5061050f6139a2565b6040518082815260200191505060405180910390f35b34801561053157600080fd5b5061053a6139aa565b6040518082815260200191505060405180910390f35b34801561055c57600080fd5b506105cd600480360381019080803560ff169060200190929190803573ffffffffffffffffffffffffffffffffffffffff16906020019092919080359060200190820180359060200191909192939192939080359060200190929190803560ff1690602001909291905050506139b6565b005b3480156105db57600080fd5b50610610600480360381019080803573ffffffffffffffffffffffffffffffffffffffff169060200190929190505050614134565b604051808415151515815260200183151515158152602001828152602001935050505060405180910390f35b34801561064857600080fd5b506106516143b7565b604051808215151515815260200191505060405180910390f35b34801561067757600080fd5b506106ce600480360381019080803573ffffffffffffffffffffffffffffffffffffffff1690602001909291908035906020019082018035906020019190919293919293908035906020019092919050505061447e565b005b3480156106dc57600080fd5b5061073360048036038101908080359060200190820180359060200191909192939192939080359060200190929190803573ffffffffffffffffffffffffffffffffffffffff16906020019092919050505061484f565b604051808215151515815260200191505060405180910390f35b6000806000809054906101000a900473ffffffffffffffffffffffffffffffffffffffff1673ffffffffffffffffffffffffffffffffffffffff1663cd905dff6040518163ffffffff167c0100000000000000000000000000000000000000000000000000000000028152600401602060405180830381600087803b1580156107d557600080fd5b505af11580156107e9573d6000803e3d6000fd5b505050506040513d60208110156107ff57600080fd5b81019080805190602001909291905050509050600115158115151415156108b4576040517f08c379a00000000000000000000000000000000000000000000000000000000081526004018080602001828103825260258152602001807f436f6e74726163742069732063757272656e746c79206e6f74206f706572617481526020017f696f6e616c00000000000000000000000000000000000000000000000000000081525060400191505060405180910390fd5b6108f18387878080601f01602080910402602001604051908101604052809392919081815260200183838082843782019150505050505086614b0a565b91506000809054906101000a900473ffffffffffffffffffffffffffffffffffffffff1673ffffffffffffffffffffffffffffffffffffffff16639a5a276f83336040518363ffffffff167c01000000000000000000000000000000000000000000000000000000000281526004018083600019166000191681526020018273ffffffffffffffffffffffffffffffffffffffff1673ffffffffffffffffffffffffffffffffffffffff16815260200192505050600060405180830381600087803b1580156109bf57600080fd5b505af11580156109d3573d6000803e3d6000fd5b50505050505050505050565b60008060008060008060008060009054906101000a900473ffffffffffffffffffffffffffffffffffffffff1673ffffffffffffffffffffffffffffffffffffffff1663cd905dff6040518163ffffffff167c0100000000000000000000000000000000000000000000000000000000028152600401602060405180830381600087803b158015610a6f57600080fd5b505af1158015610a83573d6000803e3d6000fd5b505050506040513d6020811015610a9957600080fd5b8101908080519060200190929190505050905060011515811515141515610b4e576040517f08c379a00000000000000000000000000000000000000000000000000000000081526004018080602001828103825260258152602001807f436f6e74726163742069732063757272656e746c79206e6f74206f706572617481526020017f696f6e616c00000000000000000000000000000000000000000000000000000081525060400191505060405180910390fd5b610b8b888c8c8080601f0160208091040260200160405190810160405280939291908181526020018383808284378201915050505050508b614b0a565b91506000809054906101000a900473ffffffffffffffffffffffffffffffffffffffff1673ffffffffffffffffffffffffffffffffffffffff1663cac8f292836040518263ffffffff167c010000000000000000000000000000000000000000000000000000000002815260040180826000191660001916815260200191505060a060405180830381600087803b158015610c2557600080fd5b505af1158015610c39573d6000803e3d6000fd5b505050506040513d60a0811015610c4f57600080fd5b810190808051906020019092919080519060200190929190805190602001909291908051906020019092919080519060200190929190505050965096509650965096505050945094509450945094565b60008060009054906101000a900473ffffffffffffffffffffffffffffffffffffffff1673ffffffffffffffffffffffffffffffffffffffff1663cd905dff6040518163ffffffff167c0100000000000000000000000000000000000000000000000000000000028152600401602060405180830381600087803b158015610d2657600080fd5b505af1158015610d3a573d6000803e3d6000fd5b505050506040513d6020811015610d5057600080fd5b8101908080519060200190929190505050905060011515811515141515610e05576040517f08c379a00000000000000000000000000000000000000000000000000000000081526004018080602001828103825260258152602001807f436f6e74726163742069732063757272656e746c79206e6f74206f706572617481526020017f696f6e616c00000000000000000000000000000000000000000000000000000081525060400191505060405180910390fd5b678ac7230489e80000803410151515610e86576040517f08c379a000000000000000000000000000000000000000000000000000000000815260040180806020018281038252600d8152602001807f50617920536f6d65206d6f72650000000000000000000000000000000000000081525060200191505060405180910390fd5b678ac7230489e8000033600082340390508173ffffffffffffffffffffffffffffffffffffffff166108fc829081150290604051600060405180830381858888f19350505050158015610edd573d6000803e3d6000fd5b50600015156000809054906101000a900473ffffffffffffffffffffffffffffffffffffffff1673ffffffffffffffffffffffffffffffffffffffff1663fbf47a9a336040518263ffffffff167c0100000000000000000000000000000000000000000000000000000000028152600401808273ffffffffffffffffffffffffffffffffffffffff1673ffffffffffffffffffffffffffffffffffffffff168152602001915050602060405180830381600087803b158015610f9e57600080fd5b505af1158015610fb2573d6000803e3d6000fd5b505050506040513d6020811015610fc857600080fd5b81019080805190602001909291905050501515141515611076576040517f08c379a00000000000000000000000000000000000000000000000000000000081526004018080602001828103825260238152602001807f53656e6465722068617320616c72656164792070616964206169726c696e652081526020017f666565000000000000000000000000000000000000000000000000000000000081525060400191505060405180910390fd5b6000809054906101000a900473ffffffffffffffffffffffffffffffffffffffff1673ffffffffffffffffffffffffffffffffffffffff166108fc349081150290604051600060405180830381858888f193505050501580156110dd573d6000803e3d6000fd5b506000809054906101000a900473ffffffffffffffffffffffffffffffffffffffff1673ffffffffffffffffffffffffffffffffffffffff16636f5a955b336040518263ffffffff167c0100000000000000000000000000000000000000000000000000000000028152600401808273ffffffffffffffffffffffffffffffffffffffff1673ffffffffffffffffffffffffffffffffffffffff168152602001915050600060405180830381600087803b15801561119a57600080fd5b505af11580156111ae573d6000803e3d6000fd5b505050505050505050565b670de0b6b3a764000081565b6111cd615021565b60008060009054906101000a900473ffffffffffffffffffffffffffffffffffffffff1673ffffffffffffffffffffffffffffffffffffffff1663cd905dff6040518163ffffffff167c0100000000000000000000000000000000000000000000000000000000028152600401602060405180830381600087803b15801561125457600080fd5b505af1158015611268573d6000803e3d6000fd5b505050506040513d602081101561127e57600080fd5b8101908080519060200190929190505050905060011515811515141515611333576040517f08c379a00000000000000000000000000000000000000000000000000000000081526004018080602001828103825260258152602001807f436f6e74726163742069732063757272656e746c79206e6f74206f706572617481526020017f696f6e616c00000000000000000000000000000000000000000000000000000081525060400191505060405180910390fd5b670de0b6b3a764000034101515156113b3576040517f08c379a000000000000000000000000000000000000000000000000000000000815260040180806020018281038252601c8152602001807f526567697374726174696f6e206665652069732072657175697265640000000081525060200191505060405180910390fd5b6113bc33614c2f565b9150604080519081016040528060011515815260200183815250600260003373ffffffffffffffffffffffffffffffffffffffff1673ffffffffffffffffffffffffffffffffffffffff16815260200190815260200160002060008201518160000160006101000a81548160ff02191690831515021790555060208201518160010190600361144c929190615044565b509050505050565b60008060009054906101000a900473ffffffffffffffffffffffffffffffffffffffff1673ffffffffffffffffffffffffffffffffffffffff1663cd905dff6040518163ffffffff167c0100000000000000000000000000000000000000000000000000000000028152600401602060405180830381600087803b1580156114db57600080fd5b505af11580156114ef573d6000803e3d6000fd5b505050506040513d602081101561150557600080fd5b81019080805190602001909291905050509050600115158115151415156115ba576040517f08c379a00000000000000000000000000000000000000000000000000000000081526004018080602001828103825260258152602001807f436f6e74726163742069732063757272656e746c79206e6f74206f706572617481526020017f696f6e616c00000000000000000000000000000000000000000000000000000081525060400191505060405180910390fd5b6000809054906101000a900473ffffffffffffffffffffffffffffffffffffffff1673ffffffffffffffffffffffffffffffffffffffff16630c11dedd336040518263ffffffff167c0100000000000000000000000000000000000000000000000000000000028152600401808273ffffffffffffffffffffffffffffffffffffffff1673ffffffffffffffffffffffffffffffffffffffff168152602001915050600060405180830381600087803b15801561167657600080fd5b505af115801561168a573d6000803e3d6000fd5b5050505050565b60008060008060008060009054906101000a900473ffffffffffffffffffffffffffffffffffffffff1673ffffffffffffffffffffffffffffffffffffffff1663cd905dff6040518163ffffffff167c0100000000000000000000000000000000000000000000000000000000028152600401602060405180830381600087803b15801561171e57600080fd5b505af1158015611732573d6000803e3d6000fd5b505050506040513d602081101561174857600080fd5b81019080805190602001909291905050509050600115158115151415156117fd576040517f08c379a00000000000000000000000000000000000000000000000000000000081526004018080602001828103825260258152602001807f436f6e74726163742069732063757272656e746c79206e6f74206f706572617481526020017f696f6e616c00000000000000000000000000000000000000000000000000000081525060400191505060405180910390fd5b853360008060009054906101000a900473ffffffffffffffffffffffffffffffffffffffff1673ffffffffffffffffffffffffffffffffffffffff1663ef3b80b484846040518363ffffffff167c0100000000000000000000000000000000000000000000000000000000028152600401808373ffffffffffffffffffffffffffffffffffffffff1673ffffffffffffffffffffffffffffffffffffffff1681526020018273ffffffffffffffffffffffffffffffffffffffff1673ffffffffffffffffffffffffffffffffffffffff16815260200192505050602060405180830381600087803b1580156118f157600080fd5b505af1158015611905573d6000803e3d6000fd5b505050506040513d602081101561191b57600080fd5b81019080805190602001909291905050509050600015158115151415156119d0576040517f08c379a00000000000000000000000000000000000000000000000000000000081526004018080602001828103825260238152602001807f566f746572732068617320616c72656164792070726f6d6f746564206164647281526020017f657373000000000000000000000000000000000000000000000000000000000081525060400191505060405180910390fd5b3360008060008060009054906101000a900473ffffffffffffffffffffffffffffffffffffffff1673ffffffffffffffffffffffffffffffffffffffff1663cd4ccfdb856040518263ffffffff167c0100000000000000000000000000000000000000000000000000000000028152600401808273ffffffffffffffffffffffffffffffffffffffff1673ffffffffffffffffffffffffffffffffffffffff168152602001915050606060405180830381600087803b158015611a9257600080fd5b505af1158015611aa6573d6000803e3d6000fd5b505050506040513d6060811015611abc57600080fd5b8101908080519060200190929190805190602001909291908051906020019092919050505092509250925060011515831515141515611b63576040517f08c379a00000000000000000000000000000000000000000000000000000000081526004018080602001828103825260188152602001807f53656e646572206973206e6f742072656769737465726564000000000000000081525060200191505060405180910390fd5b60011515821515141515611c05576040517f08c379a00000000000000000000000000000000000000000000000000000000081526004018080602001828103825260248152602001807f53656e64657220686173206e6f74207061696420726567697374726174696f6e81526020017f206665650000000000000000000000000000000000000000000000000000000081525060400191505060405180910390fd5b60046000809054906101000a900473ffffffffffffffffffffffffffffffffffffffff1673ffffffffffffffffffffffffffffffffffffffff166359bfaee16040518163ffffffff167c0100000000000000000000000000000000000000000000000000000000028152600401602060405180830381600087803b158015611c8c57600080fd5b505af1158015611ca0573d6000803e3d6000fd5b505050506040513d6020811015611cb657600080fd5b8101908080519060200190929190505050111515611db4576000809054906101000a900473ffffffffffffffffffffffffffffffffffffffff1673ffffffffffffffffffffffffffffffffffffffff1663b0cd517c8e60016040518363ffffffff167c0100000000000000000000000000000000000000000000000000000000028152600401808373ffffffffffffffffffffffffffffffffffffffff1673ffffffffffffffffffffffffffffffffffffffff1681526020018215151515815260200192505050600060405180830381600087803b158015611d9757600080fd5b505af1158015611dab573d6000803e3d6000fd5b5050505061218b565b6000809054906101000a900473ffffffffffffffffffffffffffffffffffffffff1673ffffffffffffffffffffffffffffffffffffffff16633d09c2a88e336040518363ffffffff167c0100000000000000000000000000000000000000000000000000000000028152600401808373ffffffffffffffffffffffffffffffffffffffff1673ffffffffffffffffffffffffffffffffffffffff1681526020018273ffffffffffffffffffffffffffffffffffffffff1673ffffffffffffffffffffffffffffffffffffffff16815260200192505050600060405180830381600087803b158015611ea457600080fd5b505af1158015611eb8573d6000803e3d6000fd5b505050506000809054906101000a900473ffffffffffffffffffffffffffffffffffffffff1673ffffffffffffffffffffffffffffffffffffffff166376a563b56040518163ffffffff167c0100000000000000000000000000000000000000000000000000000000028152600401602060405180830381600087803b158015611f4157600080fd5b505af1158015611f55573d6000803e3d6000fd5b505050506040513d6020811015611f6b57600080fd5b81019080805190602001909291905050509b506000809054906101000a900473ffffffffffffffffffffffffffffffffffffffff1673ffffffffffffffffffffffffffffffffffffffff1663cd4ccfdb8e6040518263ffffffff167c0100000000000000000000000000000000000000000000000000000000028152600401808273ffffffffffffffffffffffffffffffffffffffff1673ffffffffffffffffffffffffffffffffffffffff168152602001915050606060405180830381600087803b15801561203a57600080fd5b505af115801561204e573d6000803e3d6000fd5b505050506040513d606081101561206457600080fd5b810190808051906020019092919080519060200190929190805190602001909291905050509a509a509a50888c111580156120a35750600015158b1515145b1561218a576000809054906101000a900473ffffffffffffffffffffffffffffffffffffffff1673ffffffffffffffffffffffffffffffffffffffff1663b0cd517c8e60016040518363ffffffff167c0100000000000000000000000000000000000000000000000000000000028152600401808373ffffffffffffffffffffffffffffffffffffffff1673ffffffffffffffffffffffffffffffffffffffff1681526020018215151515815260200192505050600060405180830381600087803b15801561217157600080fd5b505af1158015612185573d6000803e3d6000fd5b505050505b5b50505050505050505050505050565b6000806000809054906101000a900473ffffffffffffffffffffffffffffffffffffffff1673ffffffffffffffffffffffffffffffffffffffff1663cd905dff6040518163ffffffff167c0100000000000000000000000000000000000000000000000000000000028152600401602060405180830381600087803b15801561222257600080fd5b505af1158015612236573d6000803e3d6000fd5b505050506040513d602081101561224c57600080fd5b8101908080519060200190929190505050905060011515811515141515612301576040517f08c379a00000000000000000000000000000000000000000000000000000000081526004018080602001828103825260258152602001807f436f6e74726163742069732063757272656e746c79206e6f74206f706572617481526020017f696f6e616c00000000000000000000000000000000000000000000000000000081525060400191505060405180910390fd5b6000809054906101000a900473ffffffffffffffffffffffffffffffffffffffff1673ffffffffffffffffffffffffffffffffffffffff166359bfaee16040518163ffffffff167c0100000000000000000000000000000000000000000000000000000000028152600401602060405180830381600087803b15801561238657600080fd5b505af115801561239a573d6000803e3d6000fd5b505050506040513d60208110156123b057600080fd5b810190808051906020019092919050505091505090565b6123cf615021565b60008060009054906101000a900473ffffffffffffffffffffffffffffffffffffffff1673ffffffffffffffffffffffffffffffffffffffff1663cd905dff6040518163ffffffff167c0100000000000000000000000000000000000000000000000000000000028152600401602060405180830381600087803b15801561245657600080fd5b505af115801561246a573d6000803e3d6000fd5b505050506040513d602081101561248057600080fd5b8101908080519060200190929190505050905060011515811515141515612535576040517f08c379a00000000000000000000000000000000000000000000000000000000081526004018080602001828103825260258152602001807f436f6e74726163742069732063757272656e746c79206e6f74206f706572617481526020017f696f6e616c00000000000000000000000000000000000000000000000000000081525060400191505060405180910390fd5b600260003373ffffffffffffffffffffffffffffffffffffffff1673ffffffffffffffffffffffffffffffffffffffff16815260200190815260200160002060000160009054906101000a900460ff1615156125f9576040517f08c379a000000000000000000000000000000000000000000000000000000000815260040180806020018281038252601b8152602001807f4e6f74207265676973746572656420617320616e206f7261636c65000000000081525060200191505060405180910390fd5b600260003373ffffffffffffffffffffffffffffffffffffffff1673ffffffffffffffffffffffffffffffffffffffff168152602001908152602001600020600101600380602002604051908101604052809291908260038015612698576020028201916000905b82829054906101000a900460ff1660ff16815260200190600101906020826000010492830192600103820291508084116126615790505b505050505091505090565b670de0b6b3a764000081565b6000806000806000809054906101000a900473ffffffffffffffffffffffffffffffffffffffff1673ffffffffffffffffffffffffffffffffffffffff1663cd905dff6040518163ffffffff167c0100000000000000000000000000000000000000000000000000000000028152600401602060405180830381600087803b15801561273a57600080fd5b505af115801561274e573d6000803e3d6000fd5b505050506040513d602081101561276457600080fd5b8101908080519060200190929190505050905060011515811515141515612819576040517f08c379a00000000000000000000000000000000000000000000000000000000081526004018080602001828103825260258152602001807f436f6e74726163742069732063757272656e746c79206e6f74206f706572617481526020017f696f6e616c00000000000000000000000000000000000000000000000000000081525060400191505060405180910390fd5b6128568589898080601f01602080910402602001604051908101604052809392919081815260200183838082843782019150505050505088614b0a565b91506000809054906101000a900473ffffffffffffffffffffffffffffffffffffffff1673ffffffffffffffffffffffffffffffffffffffff16634ae02b15836040518263ffffffff167c01000000000000000000000000000000000000000000000000000000000281526004018082600019166000191681526020019150506040805180830381600087803b1580156128ef57600080fd5b505af1158015612903573d6000803e3d6000fd5b505050506040513d604081101561291957600080fd5b81019080805190602001909291908051906020019092919050505093509350505094509492505050565b6000806000809054906101000a900473ffffffffffffffffffffffffffffffffffffffff1673ffffffffffffffffffffffffffffffffffffffff1663cd905dff6040518163ffffffff167c0100000000000000000000000000000000000000000000000000000000028152600401602060405180830381600087803b1580156129cb57600080fd5b505af11580156129df573d6000803e3d6000fd5b505050506040513d60208110156129f557600080fd5b8101908080519060200190929190505050905060011515811515141515612aaa576040517f08c379a00000000000000000000000000000000000000000000000000000000081526004018080602001828103825260258152602001807f436f6e74726163742069732063757272656e746c79206e6f74206f706572617481526020017f696f6e616c00000000000000000000000000000000000000000000000000000081525060400191505060405180910390fd5b6000809054906101000a900473ffffffffffffffffffffffffffffffffffffffff1673ffffffffffffffffffffffffffffffffffffffff166376a563b56040518163ffffffff167c0100000000000000000000000000000000000000000000000000000000028152600401602060405180830381600087803b158015612b2f57600080fd5b505af1158015612b43573d6000803e3d6000fd5b505050506040513d6020811015612b5957600080fd5b810190808051906020019092919050505091505090565b6000806000809054906101000a900473ffffffffffffffffffffffffffffffffffffffff1673ffffffffffffffffffffffffffffffffffffffff1663cd905dff6040518163ffffffff167c0100000000000000000000000000000000000000000000000000000000028152600401602060405180830381600087803b158015612bf857600080fd5b505af1158015612c0c573d6000803e3d6000fd5b505050506040513d6020811015612c2257600080fd5b8101908080519060200190929190505050905060011515811515141515612cd7576040517f08c379a00000000000000000000000000000000000000000000000000000000081526004018080602001828103825260258152602001807f436f6e74726163742069732063757272656e746c79206e6f74206f706572617481526020017f696f6e616c00000000000000000000000000000000000000000000000000000081525060400191505060405180910390fd5b3360008060008060009054906101000a900473ffffffffffffffffffffffffffffffffffffffff1673ffffffffffffffffffffffffffffffffffffffff1663cd4ccfdb856040518263ffffffff167c0100000000000000000000000000000000000000000000000000000000028152600401808273ffffffffffffffffffffffffffffffffffffffff1673ffffffffffffffffffffffffffffffffffffffff168152602001915050606060405180830381600087803b158015612d9957600080fd5b505af1158015612dad573d6000803e3d6000fd5b505050506040513d6060811015612dc357600080fd5b8101908080519060200190929190805190602001909291908051906020019092919050505092509250925060011515831515141515612e6a576040517f08c379a00000000000000000000000000000000000000000000000000000000081526004018080602001828103825260188152602001807f53656e646572206973206e6f742072656769737465726564000000000000000081525060200191505060405180910390fd5b60011515821515141515612f0c576040517f08c379a00000000000000000000000000000000000000000000000000000000081526004018080602001828103825260248152602001807f53656e64657220686173206e6f74207061696420726567697374726174696f6e81526020017f206665650000000000000000000000000000000000000000000000000000000081525060400191505060405180910390fd5b612f49338b8b8080601f0160208091040260200160405190810160405280939291908181526020018383808284378201915050505050508a614b0a565b95506000809054906101000a900473ffffffffffffffffffffffffffffffffffffffff1673ffffffffffffffffffffffffffffffffffffffff16620f8e0e87898b6040518463ffffffff167c01000000000000000000000000000000000000000000000000000000000281526004018084600019166000191681526020018381526020018281526020019350505050600060405180830381600087803b158015612ff257600080fd5b505af1158015613006573d6000803e3d6000fd5b5050505050505050505050505050565b60008060008060008060009054906101000a900473ffffffffffffffffffffffffffffffffffffffff1673ffffffffffffffffffffffffffffffffffffffff1663cd905dff6040518163ffffffff167c0100000000000000000000000000000000000000000000000000000000028152600401602060405180830381600087803b1580156130a357600080fd5b505af11580156130b7573d6000803e3d6000fd5b505050506040513d60208110156130cd57600080fd5b8101908080519060200190929190505050905060011515811515141515613182576040517f08c379a00000000000000000000000000000000000000000000000000000000081526004018080602001828103825260258152602001807f436f6e74726163742069732063757272656e746c79206e6f74206f706572617481526020017f696f6e616c00000000000000000000000000000000000000000000000000000081525060400191505060405180910390fd5b6131bf878b8b8080601f0160208091040260200160405190810160405280939291908181526020018383808284378201915050505050508a614b0a565b93506000809054906101000a900473ffffffffffffffffffffffffffffffffffffffff1673ffffffffffffffffffffffffffffffffffffffff16634ae02b15856040518263ffffffff167c01000000000000000000000000000000000000000000000000000000000281526004018082600019166000191681526020019150506040805180830381600087803b15801561325857600080fd5b505af115801561326c573d6000803e3d6000fd5b505050506040513d604081101561328257600080fd5b810190808051906020019092919080519060200190929190505050925092506001151586151514156135055781341015151561334c576040517f08c379a00000000000000000000000000000000000000000000000000000000081526004018080602001828103825260298152602001807f4e656564206d6f726520457468657220666f72207469636b657420776974682081526020017f696e737572616e6365000000000000000000000000000000000000000000000081525060400191505060405180910390fd5b61335f8234614dd590919063ffffffff16565b94503373ffffffffffffffffffffffffffffffffffffffff166108fc869081150290604051600060405180830381858888f193505050501580156133a7573d6000803e3d6000fd5b506000809054906101000a900473ffffffffffffffffffffffffffffffffffffffff1673ffffffffffffffffffffffffffffffffffffffff166108fc839081150290604051600060405180830381858888f1935050505015801561340f573d6000803e3d6000fd5b506000809054906101000a900473ffffffffffffffffffffffffffffffffffffffff1673ffffffffffffffffffffffffffffffffffffffff16634653a1b28533896040518463ffffffff167c01000000000000000000000000000000000000000000000000000000000281526004018084600019166000191681526020018373ffffffffffffffffffffffffffffffffffffffff1673ffffffffffffffffffffffffffffffffffffffff168152602001821515151581526020019350505050600060405180830381600087803b1580156134e857600080fd5b505af11580156134fc573d6000803e3d6000fd5b50505050613732565b82341015151561357d576040517f08c379a000000000000000000000000000000000000000000000000000000000815260040180806020018281038252601a8152602001807f4e656564206d6f726520457468657220666f72207469636b657400000000000081525060200191505060405180910390fd5b6135908334614dd590919063ffffffff16565b94503373ffffffffffffffffffffffffffffffffffffffff166108fc869081150290604051600060405180830381858888f193505050501580156135d8573d6000803e3d6000fd5b506000809054906101000a900473ffffffffffffffffffffffffffffffffffffffff1673ffffffffffffffffffffffffffffffffffffffff166108fc849081150290604051600060405180830381858888f19350505050158015613640573d6000803e3d6000fd5b506000809054906101000a900473ffffffffffffffffffffffffffffffffffffffff1673ffffffffffffffffffffffffffffffffffffffff16634653a1b28533896040518463ffffffff167c01000000000000000000000000000000000000000000000000000000000281526004018084600019166000191681526020018373ffffffffffffffffffffffffffffffffffffffff1673ffffffffffffffffffffffffffffffffffffffff168152602001821515151581526020019350505050600060405180830381600087803b15801561371957600080fd5b505af115801561372d573d6000803e3d6000fd5b505050505b50505050505050505050565b6000806000809054906101000a900473ffffffffffffffffffffffffffffffffffffffff1673ffffffffffffffffffffffffffffffffffffffff1663cd905dff6040518163ffffffff167c0100000000000000000000000000000000000000000000000000000000028152600401602060405180830381600087803b1580156137c657600080fd5b505af11580156137da573d6000803e3d6000fd5b505050506040513d60208110156137f057600080fd5b81019080805190602001909291905050509050600115158115151415156138a5576040517f08c379a00000000000000000000000000000000000000000000000000000000081526004018080602001828103825260258152602001807f436f6e74726163742069732063757272656e746c79206e6f74206f706572617481526020017f696f6e616c00000000000000000000000000000000000000000000000000000081525060400191505060405180910390fd5b6000809054906101000a900473ffffffffffffffffffffffffffffffffffffffff1673ffffffffffffffffffffffffffffffffffffffff16634a830a92336040518263ffffffff167c0100000000000000000000000000000000000000000000000000000000028152600401808273ffffffffffffffffffffffffffffffffffffffff1673ffffffffffffffffffffffffffffffffffffffff168152602001915050602060405180830381600087803b15801561396157600080fd5b505af1158015613975573d6000803e3d6000fd5b505050506040513d602081101561398b57600080fd5b810190808051906020019092919050505091505090565b600042905090565b678ac7230489e8000081565b6000806000809054906101000a900473ffffffffffffffffffffffffffffffffffffffff1673ffffffffffffffffffffffffffffffffffffffff1663cd905dff6040518163ffffffff167c0100000000000000000000000000000000000000000000000000000000028152600401602060405180830381600087803b158015613a3e57600080fd5b505af1158015613a52573d6000803e3d6000fd5b505050506040513d6020811015613a6857600080fd5b8101908080519060200190929190505050905060011515811515141515613b1d576040517f08c379a00000000000000000000000000000000000000000000000000000000081526004018080602001828103825260258152602001807f436f6e74726163742069732063757272656e746c79206e6f74206f706572617481526020017f696f6e616c00000000000000000000000000000000000000000000000000000081525060400191505060405180910390fd5b8760ff16600260003373ffffffffffffffffffffffffffffffffffffffff1673ffffffffffffffffffffffffffffffffffffffff1681526020019081526020016000206001016000600381101515613b7157fe5b602091828204019190069054906101000a900460ff1660ff161480613c0057508760ff16600260003373ffffffffffffffffffffffffffffffffffffffff1673ffffffffffffffffffffffffffffffffffffffff1681526020019081526020016000206001016001600381101515613be557fe5b602091828204019190069054906101000a900460ff1660ff16145b80613c7557508760ff16600260003373ffffffffffffffffffffffffffffffffffffffff1673ffffffffffffffffffffffffffffffffffffffff1681526020019081526020016000206001016002600381101515613c5a57fe5b602091828204019190069054906101000a900460ff1660ff16145b1515613d0f576040517f08c379a00000000000000000000000000000000000000000000000000000000081526004018080602001828103825260238152602001807f496e64657820646f6573206e6f74206d61746368206f7261636c65207265717581526020017f657374000000000000000000000000000000000000000000000000000000000081525060400191505060405180910390fd5b8787878787604051602001808660ff1660ff167f01000000000000000000000000000000000000000000000000000000000000000281526001018573ffffffffffffffffffffffffffffffffffffffff1673ffffffffffffffffffffffffffffffffffffffff166c010000000000000000000000000281526014018484808284378201915050828152602001955050505050506040516020818303038152906040526040518082805190602001908083835b602083101515613de65780518252602082019150602081019050602083039250613dc1565b6001836020036101000a0380198251168184511680821785525050505050509050019150506040518091039020915060036000836000191660001916815260200190815260200160002060000160149054906101000a900460ff161515613edb576040517f08c379a000000000000000000000000000000000000000000000000000000000815260040180806020018281038252602f8152602001807f466c69676874206f722074696d657374616d7020646f206e6f74206d6174636881526020017f206f7261636c652072657175657374000000000000000000000000000000000081525060400191505060405180910390fd5b60036000836000191660001916815260200190815260200160002060010160008460ff1660ff1681526020019081526020016000203390806001815401808255809150509060018203906000526020600020016000909192909190916101000a81548173ffffffffffffffffffffffffffffffffffffffff021916908373ffffffffffffffffffffffffffffffffffffffff160217905550507f43c853095c2752648493c88b4baac4d580d2594ffb00c6f1d4242d844514f7838787878787604051808673ffffffffffffffffffffffffffffffffffffffff1673ffffffffffffffffffffffffffffffffffffffff168152602001806020018481526020018360ff1660ff16815260200182810382528686828181526020019250808284378201915050965050505050505060405180910390a16003806000846000191660001916815260200190815260200160002060010160008560ff1660ff1681526020019081526020016000208054905010151561412a577fe23f5229de535c091e3b7bec2665f5d698192d3b31393066e8987b7a05076b6c8787878787604051808673ffffffffffffffffffffffffffffffffffffffff1673ffffffffffffffffffffffffffffffffffffffff168152602001806020018481526020018360ff1660ff16815260200182810382528686828181526020019250808284378201915050965050505050505060405180910390a16141298787878080601f0160208091040260200160405190810160405280939291908181526020018383808284378201915050505050508686614dee565b5b5050505050505050565b6000806000806000809054906101000a900473ffffffffffffffffffffffffffffffffffffffff1673ffffffffffffffffffffffffffffffffffffffff1663cd905dff6040518163ffffffff167c0100000000000000000000000000000000000000000000000000000000028152600401602060405180830381600087803b1580156141bf57600080fd5b505af11580156141d3573d6000803e3d6000fd5b505050506040513d60208110156141e957600080fd5b810190808051906020019092919050505090506001151581151514151561429e576040517f08c379a00000000000000000000000000000000000000000000000000000000081526004018080602001828103825260258152602001807f436f6e74726163742069732063757272656e746c79206e6f74206f706572617481526020017f696f6e616c00000000000000000000000000000000000000000000000000000081525060400191505060405180910390fd5b6000809054906101000a900473ffffffffffffffffffffffffffffffffffffffff1673ffffffffffffffffffffffffffffffffffffffff1663cd4ccfdb866040518263ffffffff167c0100000000000000000000000000000000000000000000000000000000028152600401808273ffffffffffffffffffffffffffffffffffffffff1673ffffffffffffffffffffffffffffffffffffffff168152602001915050606060405180830381600087803b15801561435a57600080fd5b505af115801561436e573d6000803e3d6000fd5b505050506040513d606081101561438457600080fd5b81019080805190602001909291908051906020019092919080519060200190929190505050935093509350509193909250565b60008060009054906101000a900473ffffffffffffffffffffffffffffffffffffffff1673ffffffffffffffffffffffffffffffffffffffff1663cd905dff6040518163ffffffff167c0100000000000000000000000000000000000000000000000000000000028152600401602060405180830381600087803b15801561443e57600080fd5b505af1158015614452573d6000803e3d6000fd5b505050506040513d602081101561446857600080fd5b8101908080519060200190929190505050905090565b60008060008060009054906101000a900473ffffffffffffffffffffffffffffffffffffffff1673ffffffffffffffffffffffffffffffffffffffff1663cd905dff6040518163ffffffff167c0100000000000000000000000000000000000000000000000000000000028152600401602060405180830381600087803b15801561450857600080fd5b505af115801561451c573d6000803e3d6000fd5b505050506040513d602081101561453257600080fd5b81019080805190602001909291905050509050600115158115151415156145e7576040517f08c379a00000000000000000000000000000000000000000000000000000000081526004018080602001828103825260258152602001807f436f6e74726163742069732063757272656e746c79206e6f74206f706572617481526020017f696f6e616c00000000000000000000000000000000000000000000000000000081525060400191505060405180910390fd5b6145f033614ebf565b92508287878787604051602001808660ff1660ff167f01000000000000000000000000000000000000000000000000000000000000000281526001018573ffffffffffffffffffffffffffffffffffffffff1673ffffffffffffffffffffffffffffffffffffffff166c010000000000000000000000000281526014018484808284378201915050828152602001955050505050506040516020818303038152906040526040518082805190602001908083835b6020831015156146c957805182526020820191506020810190506020830392506146a4565b6001836020036101000a0380198251168184511680821785525050505050509050019150506040518091039020915060408051908101604052803373ffffffffffffffffffffffffffffffffffffffff1681526020016001151581525060036000846000191660001916815260200190815260200160002060008201518160000160006101000a81548173ffffffffffffffffffffffffffffffffffffffff021916908373ffffffffffffffffffffffffffffffffffffffff16021790555060208201518160000160146101000a81548160ff0219169083151502179055509050507f3ed01f2c3fc24c6b329d931e35b03e390d23497d22b3f90e15b600343e93df118388888888604051808660ff1660ff1681526020018573ffffffffffffffffffffffffffffffffffffffff1673ffffffffffffffffffffffffffffffffffffffff1681526020018060200183815260200182810382528585828181526020019250808284378201915050965050505050505060405180910390a150505050505050565b60008060008060009054906101000a900473ffffffffffffffffffffffffffffffffffffffff1673ffffffffffffffffffffffffffffffffffffffff1663cd905dff6040518163ffffffff167c0100000000000000000000000000000000000000000000000000000000028152600401602060405180830381600087803b1580156148d957600080fd5b505af11580156148ed573d6000803e3d6000fd5b505050506040513d602081101561490357600080fd5b81019080805190602001909291905050509050600115158115151415156149b8576040517f08c379a00000000000000000000000000000000000000000000000000000000081526004018080602001828103825260258152602001807f436f6e74726163742069732063757272656e746c79206e6f74206f706572617481526020017f696f6e616c00000000000000000000000000000000000000000000000000000081525060400191505060405180910390fd5b6149f58488888080601f01602080910402602001604051908101604052809392919081815260200183838082843782019150505050505087614b0a565b91506000809054906101000a900473ffffffffffffffffffffffffffffffffffffffff1673ffffffffffffffffffffffffffffffffffffffff1663ee8bd1d083336040518363ffffffff167c01000000000000000000000000000000000000000000000000000000000281526004018083600019166000191681526020018273ffffffffffffffffffffffffffffffffffffffff1673ffffffffffffffffffffffffffffffffffffffff16815260200192505050602060405180830381600087803b158015614ac357600080fd5b505af1158015614ad7573d6000803e3d6000fd5b505050506040513d6020811015614aed57600080fd5b810190808051906020019092919050505092505050949350505050565b6000838383604051602001808473ffffffffffffffffffffffffffffffffffffffff1673ffffffffffffffffffffffffffffffffffffffff166c0100000000000000000000000002815260140183805190602001908083835b602083101515614b885780518252602082019150602081019050602083039250614b63565b6001836020036101000a03801982511681845116808217855250505050505090500182815260200193505050506040516020818303038152906040526040518082805190602001908083835b602083101515614bf95780518252602082019150602081019050602083039250614bd4565b6001836020036101000a038019825116818451168082178552505050505050905001915050604051809103902090509392505050565b614c37615021565b614c3f615021565b614c4883614ebf565b816000600381101515614c5757fe5b602002019060ff16908160ff1681525050806000600381101515614c7757fe5b6020020151816001600381101515614c8b57fe5b602002019060ff16908160ff16815250505b806000600381101515614cac57fe5b602002015160ff16816001600381101515614cc357fe5b602002015160ff161415614cff57614cda83614ebf565b816001600381101515614ce957fe5b602002019060ff16908160ff1681525050614c9d565b806001600381101515614d0e57fe5b6020020151816002600381101515614d2257fe5b602002019060ff16908160ff16815250505b806000600381101515614d4357fe5b602002015160ff16816002600381101515614d5a57fe5b602002015160ff161480614d995750806001600381101515614d7857fe5b602002015160ff16816002600381101515614d8f57fe5b602002015160ff16145b15614dcc57614da783614ebf565b816002600381101515614db657fe5b602002019060ff16908160ff1681525050614d34565b80915050919050565b6000828211151515614de357fe5b818303905092915050565b6000614dfb858585614b0a565b90506000809054906101000a900473ffffffffffffffffffffffffffffffffffffffff1673ffffffffffffffffffffffffffffffffffffffff1663b54cd45182846040518363ffffffff167c01000000000000000000000000000000000000000000000000000000000281526004018083600019166000191681526020018260ff16815260200192505050600060405180830381600087803b158015614ea057600080fd5b505af1158015614eb4573d6000803e3d6000fd5b505050505050505050565b6000806000600a91508160ff166001601481819054906101000a900460ff168092919060010191906101000a81548160ff021916908360ff16021790555060ff16430340856040516020018083600019166000191681526020018273ffffffffffffffffffffffffffffffffffffffff1673ffffffffffffffffffffffffffffffffffffffff166c01000000000000000000000000028152601401925050506040516020818303038152906040526040518082805190602001908083835b602083101515614fa25780518252602082019150602081019050602083039250614f7d565b6001836020036101000a038019825116818451168082178552505050505050905001915050604051809103902060019004811515614fdc57fe5b06905060fa600160149054906101000a900460ff1660ff161115615017576000600160146101000a81548160ff021916908360ff1602179055505b8092505050919050565b606060405190810160405280600390602082028038833980820191505090505090565b826003601f016020900481019282156150cd5791602002820160005b8382111561509e57835183826101000a81548160ff021916908360ff1602179055509260200192600101602081600001049283019260010302615060565b80156150cb5782816101000a81549060ff021916905560010160208160000104928301926001030261509e565b505b5090506150da91906150de565b5090565b61510b91905b8082111561510757600081816101000a81549060ff0219169055506001016150e4565b5090565b905600a165627a7a723058204a15ec54260051fde7f426e04ba4b0ba011daac914d666d7db3fe3add64413e80029",
  "source": "pragma solidity ^0.4.25;\r\n\r\n// It's important to avoid vulnerabilities due to numeric overflow bugs\r\n// OpenZeppelin's SafeMath library, when used correctly, protects agains such bugs\r\n// More info: https://www.nccgroup.trust/us/about-us/newsroom-and-events/blog/2018/november/smart-contract-insecurity-bad-arithmetic/\r\n\r\nimport \"../node_modules/openzeppelin-solidity/contracts/math/SafeMath.sol\";\r\n\r\n/************************************************** */\r\n/* FlightSurety Smart Contract                      */\r\n/************************************************** */\r\ncontract FlightSuretyApp {\r\n    using SafeMath for uint256; // Allow SafeMath functions to be called for all uint256 types (similar to \"prototype\" in Javascript)\r\n\r\n    FlightSuretyData flightSuretyData;\r\n\r\n  /*******************Contact Variables***********************/\r\n  /**                                                        */\r\n  /***********************************************************/\r\n\r\n    // Flight status codees\r\n    uint8 private constant STATUS_CODE_UNKNOWN = 0;\r\n    uint8 private constant STATUS_CODE_ON_TIME = 10;\r\n    uint8 private constant STATUS_CODE_LATE_AIRLINE = 20;\r\n    uint8 private constant STATUS_CODE_LATE_WEATHER = 30;\r\n    uint8 private constant STATUS_CODE_LATE_TECHNICAL = 40;\r\n    uint8 private constant STATUS_CODE_LATE_OTHER = 50;\r\n\r\n    address private contractOwner;\r\n\r\n    uint256 public constant AirlineRegistrationFee = 10 ether;\r\n    uint256 public constant Insurance_FEE = 1 ether;\r\n\r\n        constructor(address dataContract) public\r\n    {\r\n        contractOwner = msg.sender;\r\n        flightSuretyData = FlightSuretyData(dataContract);\r\n    }\r\n\r\n  /***********************************************************/\r\n\r\n    /******************** Modifiers***********************/\r\n    /**                                                  */\r\n    /*****************************************************/\r\n      modifier requireIsOperational()\r\n      {\r\n          // Modify to call data contract's status\r\n          bool status = flightSuretyData.isOperational();\r\n          require(status == true, \"Contract is currently not operational\");\r\n          _;  // All modifiers require an \"_\" which indicates where the function body will be added\r\n      }\r\n\r\n      modifier requireContractOwner()\r\n      {\r\n          require(msg.sender == contractOwner, \"Caller is not contract owner\");\r\n          _;\r\n      }\r\n\r\n      modifier requireRegisteredUser(address addressToCheck)\r\n      {\r\n        // check if address is in registerQue mapping\r\n        (bool registered, bool haspaid, uint256 votes) = flightSuretyData.isRegisterAirline(addressToCheck);\r\n        require(registered == true, \"Sender is not registered\");\r\n        require(haspaid == true,\"Sender has not paid registration fee\");\r\n        _;\r\n      }\r\n\r\n      // Define a modifier that checks if the paid amount is sufficient to cover the price\r\n      modifier paidEnough(uint _price)\r\n      {\r\n        require(msg.value >= _price, \"Pay Some more\");\r\n        _;\r\n      }\r\n\r\n      // Define a modifier that checks the price and refunds the remaining balance\r\n      modifier checkValue(uint _price, address addressToFund)\r\n      {\r\n        uint  amountToReturn = msg.value - _price;\r\n        addressToFund.transfer(amountToReturn);\r\n        _;\r\n      }\r\n\r\n      modifier checkVoter(address _address, address _promoter)\r\n      {\r\n        bool hasVoted = flightSuretyData.hasAlreadyVoted(_address, _promoter);\r\n        require(hasVoted == false, \"Voters has already promoted address\");\r\n        _;\r\n      }\r\n\r\n    /*****************************************************/\r\n\r\n\r\n    /*********************Tool functions******************/\r\n    /**                                                  */\r\n    /*****************************************************/\r\n      function isOperational() external returns (bool)\r\n      {\r\n        return flightSuretyData.isOperational();\r\n      }\r\n\r\n      function getRegistrationCount() external\r\n      requireIsOperational()\r\n      returns(uint256)\r\n      {\r\n        return flightSuretyData.getRegistrationCount();\r\n      }\r\n\r\n      function getCurrentConsieses() external\r\n      requireIsOperational()\r\n      returns(uint256)\r\n      {\r\n        return flightSuretyData.getCurrentConsieses();\r\n      }\r\n\r\n      function isRegisterAirline(address addressToCheck) external\r\n      requireIsOperational()\r\n      returns(bool registered,bool hasPaid, uint256 votes)\r\n      {\r\n          return flightSuretyData.isRegisterAirline(addressToCheck);\r\n      }\r\n\r\n      function contractTime() external view\r\n      returns(uint256)\r\n      {\r\n        return (now);\r\n      }\r\n\r\n      function getFlightStatus(string flight ,uint256 _timestamp, address airline) external\r\n      requireIsOperational()\r\n      returns(bool exist,uint256 status,bool registered,uint256 departuretime,uint256 price)\r\n      {\r\n        bytes32 key = getFlightKey(airline, flight, _timestamp);\r\n        return (flightSuretyData.getFlight(key));\r\n      }\r\n    /*****************************************************/\r\n\r\n\r\n\r\n    /******************Airline Functions*******************/\r\n    /**                                                   */\r\n    /******************************************************/\r\n\r\n        function promoteAddressFromRegistration(address addressToPromote) external\r\n          requireIsOperational()\r\n          checkVoter(addressToPromote, msg.sender)\r\n          requireRegisteredUser(msg.sender)\r\n          {\r\n            if (flightSuretyData.getRegistrationCount() <= 4){\r\n              flightSuretyData.changeRegisteration(addressToPromote,true);\r\n            }else{ \r\n              flightSuretyData.addVote(addressToPromote,msg.sender);\r\n              uint256 consieses = flightSuretyData.getCurrentConsieses();\r\n              (bool registered, bool haspaid, uint256 votes) = flightSuretyData.isRegisterAirline(addressToPromote);\r\n              if (consieses <= votes && registered == false){\r\n                flightSuretyData.changeRegisteration(addressToPromote,true);\r\n                }\r\n              }\r\n          }\r\n\r\n\r\n\r\n      function payRegistrationFee() external payable\r\n        requireIsOperational()\r\n        paidEnough(AirlineRegistrationFee)\r\n        checkValue(AirlineRegistrationFee,msg.sender)\r\n        {\r\n          require(flightSuretyData.hasPaid(msg.sender) == false, \"Sender has already paid airline fee\");\r\n          address(flightSuretyData).transfer(msg.value);\r\n          flightSuretyData.payFee(msg.sender);\r\n        }\r\n\r\n\r\n      function registerFlight(string _flight, uint256 _timestamp, uint256 _price) external\r\n        requireIsOperational()\r\n        requireRegisteredUser(msg.sender)\r\n        {\r\n          bytes32 key = getFlightKey(msg.sender, _flight,_timestamp);\r\n          flightSuretyData.addRegisteredFlight(key,_price,_timestamp);\r\n        }\r\n\r\n    /******************************************************/\r\n\r\n\r\n    /******************Insurance Functions*****************/\r\n    /**                                                   */\r\n    /******************************************************/\r\n        function getTicketPrice(string flight ,uint256 _timestamp, address airline) external \r\n        requireIsOperational()\r\n        returns(uint256,uint256)\r\n      {\r\n        bytes32 key = getFlightKey(airline, flight, _timestamp);\r\n        return flightSuretyData.getTicketPriceWithInsurance(key);\r\n      }\r\n\r\n      function buyTicket(string flight ,uint256 _timestamp, address airline,bool insured) external payable\r\n      requireIsOperational()\r\n      {\r\n\r\n        uint256  amountToReturn;\r\n        bytes32 key = getFlightKey(airline, flight, _timestamp);\r\n        (uint256 ticketPriceWithout ,uint256 ticketPriceWith) = flightSuretyData.getTicketPriceWithInsurance(key);\r\n\r\n        if (insured == true){\r\n          require (msg.value >= ticketPriceWith, \"Need more Ether for ticket with insurance\");\r\n          amountToReturn = msg.value.sub(ticketPriceWith);\r\n          msg.sender.transfer(amountToReturn);\r\n          address(flightSuretyData).transfer(ticketPriceWith);\r\n          flightSuretyData.buy(key,msg.sender,insured);\r\n\r\n        }else{\r\n          require (msg.value >= ticketPriceWithout, \"Need more Ether for ticket\");\r\n          amountToReturn = msg.value.sub(ticketPriceWithout);\r\n          msg.sender.transfer(amountToReturn);\r\n          address(flightSuretyData).transfer(ticketPriceWithout);\r\n          flightSuretyData.buy(key,msg.sender,insured);\r\n        }\r\n      }\r\n\r\n      function receiveCredit() external\r\n      requireIsOperational()\r\n      {\r\n        flightSuretyData.pay(msg.sender);\r\n      }\r\n\r\n      function isInsured(string flight ,uint256 _timestamp, address airline) external \r\n      requireIsOperational()\r\n      returns(bool)\r\n      {\r\n        bytes32 key = getFlightKey(airline, flight, _timestamp);\r\n        return flightSuretyData.isInsured(key,msg.sender);\r\n      }\r\n\r\n      function getCredit(string flight ,uint256 _timestamp, address airline) external\r\n      requireIsOperational()\r\n      {\r\n        bytes32 key = getFlightKey(airline, flight, _timestamp);\r\n        flightSuretyData.fund( key,msg.sender);\r\n      }\r\n\r\n      function creditAmount() external \r\n      requireIsOperational()\r\n      returns (uint256)\r\n      {\r\n        return(flightSuretyData.creditInsurees(msg.sender));\r\n      }\r\n\r\n\r\n\r\n    /******************************************************/\r\n \r\n    /********************Oracle Functions******************/\r\n    /**                                                   */\r\n    /******************************************************/\r\n\r\n      function processFlightStatus(address airline, string memory flight, uint256 timestamp, uint8 statusCode) internal\r\n      \r\n      {\r\n        bytes32 key = getFlightKey(airline, flight, timestamp);\r\n        flightSuretyData.updateFlightStatus(key, statusCode);\r\n      }\r\n\r\n\r\n      function fetchFlightStatus(address airline, string flight,uint256 timestamp) external\r\n      requireIsOperational()\r\n      {\r\n          uint8 index = getRandomIndex(msg.sender);\r\n\r\n          // Generate a unique key for storing the request\r\n          bytes32 key = keccak256(abi.encodePacked(index, airline, flight, timestamp));\r\n          oracleResponses[key] = ResponseInfo({\r\n                                                  requester: msg.sender,\r\n                                                  isOpen: true\r\n                                              });\r\n\r\n          emit OracleRequest(index, airline, flight, timestamp);\r\n      } \r\n\r\n      // Incremented to add pseudo-randomness at various points\r\n      uint8 private nonce = 0;    \r\n\r\n      // Fee to be paid when registering oracle\r\n      uint256 public constant REGISTRATION_FEE = 1 ether;\r\n\r\n      // Number of oracles that must respond for valid status\r\n      uint256 private constant MIN_RESPONSES = 3;\r\n\r\n\r\n      struct Oracle {\r\n          bool isRegistered;\r\n          uint8[3] indexes;        \r\n      }\r\n\r\n      // Track all registered oracles\r\n      mapping(address => Oracle) private oracles;\r\n\r\n      // Model for responses from oracles\r\n      struct ResponseInfo {\r\n          address requester;                              // Account that requested status\r\n          bool isOpen;                                    // If open, oracle responses are accepted\r\n          mapping(uint8 => address[]) responses;          // Mapping key is the status code reported\r\n                                                          // This lets us group responses and identify\r\n                                                          // the response that majority of the oracles\r\n      }\r\n\r\n      // Track all oracle responses\r\n      // Key = hash(index, flight, timestamp)\r\n      mapping(bytes32 => ResponseInfo) private oracleResponses;\r\n\r\n      // Event fired each time an oracle submits a response\r\n      event FlightStatusInfo(address airline, string flight, uint256 timestamp, uint8 status);\r\n\r\n      event OracleReport(address airline, string flight, uint256 timestamp, uint8 status);\r\n\r\n      // Event fired when flight status request is submitted\r\n      // Oracles track this and if they have a matching index\r\n      // they fetch data and submit a response\r\n      event OracleRequest(uint8 index, address airline, string flight, uint256 timestamp);\r\n\r\n\r\n      // Register an oracle with the contract\r\n      function registerOracle() external payable\r\n      requireIsOperational()\r\n      {\r\n          //Require registration fee\r\n          require(msg.value >= REGISTRATION_FEE, \"Registration fee is required\");\r\n\r\n          uint8[3] memory indexes = generateIndexes(msg.sender);\r\n\r\n          oracles[msg.sender] = Oracle({\r\n                                          isRegistered: true,\r\n                                          indexes: indexes\r\n                                      });\r\n      }\r\n\r\n      function getMyIndexes() external\r\n      requireIsOperational()\r\n      returns(uint8[3])\r\n      {\r\n          require(oracles[msg.sender].isRegistered, \"Not registered as an oracle\");\r\n\r\n          return oracles[msg.sender].indexes;\r\n      }\r\n\r\n      // Called by oracle when a response is available to an outstanding request\r\n      // For the response to be accepted, there must be a pending request that is open\r\n      // and matches one of the three Indexes randomly assigned to the oracle at the\r\n      // time of registration (i.e. uninvited oracles are not welcome)\r\n      function submitOracleResponse(uint8 index, address airline,string flight,uint256 timestamp,uint8 statusCode) external\r\n      requireIsOperational()\r\n      {\r\n          require((oracles[msg.sender].indexes[0] == index) || (oracles[msg.sender].indexes[1] == index) || (oracles[msg.sender].indexes[2] == index), \"Index does not match oracle request\");\r\n\r\n\r\n          bytes32 key = keccak256(abi.encodePacked(index, airline, flight, timestamp)); \r\n          require(oracleResponses[key].isOpen, \"Flight or timestamp do not match oracle request\");\r\n\r\n          oracleResponses[key].responses[statusCode].push(msg.sender);\r\n\r\n          // Information isn't considered verified until at least MIN_RESPONSES\r\n          // oracles respond with the *** same *** information\r\n          emit OracleReport(airline, flight, timestamp, statusCode);\r\n          if (oracleResponses[key].responses[statusCode].length >= MIN_RESPONSES) {\r\n\r\n              emit FlightStatusInfo(airline, flight, timestamp, statusCode);\r\n\r\n              // Handle flight status as appropriate\r\n              processFlightStatus(airline, flight, timestamp, statusCode);\r\n          }\r\n      }\r\n\r\n\r\n      function getFlightKey\r\n                          (\r\n                              address airline,\r\n                              string flight,\r\n                              uint256 timestamp\r\n                          )\r\n                          pure\r\n                          internal\r\n                          \r\n                          returns(bytes32) \r\n      {\r\n          return keccak256(abi.encodePacked(airline, flight, timestamp));\r\n      }\r\n\r\n      // Returns array of three non-duplicating integers from 0-9\r\n      function generateIndexes(address account)\r\n                              internal\r\n                              returns(uint8[3])\r\n      {\r\n          uint8[3] memory indexes;\r\n          indexes[0] = getRandomIndex(account);\r\n          \r\n          indexes[1] = indexes[0];\r\n          while(indexes[1] == indexes[0]) {\r\n              indexes[1] = getRandomIndex(account);\r\n          }\r\n\r\n          indexes[2] = indexes[1];\r\n          while((indexes[2] == indexes[0]) || (indexes[2] == indexes[1])) {\r\n              indexes[2] = getRandomIndex(account);\r\n          }\r\n\r\n          return indexes;\r\n      }\r\n\r\n      // Returns array of three non-duplicating integers from 0-9\r\n      function getRandomIndex(address account)\r\n      internal\r\n      returns (uint8)\r\n      {\r\n          uint8 maxValue = 10;\r\n\r\n          // Pseudo random number...the incrementing nonce adds variation\r\n          uint8 random = uint8(uint256(keccak256(abi.encodePacked(blockhash(block.number - nonce++), account))) % maxValue);\r\n\r\n          if (nonce > 250) {\r\n              nonce = 0;  // Can only fetch blockhashes for last 256 blocks so we adapt\r\n          }\r\n\r\n          return random;\r\n      }\r\n\r\n    /******************************************************/\r\n}\r\n\r\n/*********************DataContact Functions***********************/\r\n/**                                                       */\r\n/**********************************************************/\r\n  contract FlightSuretyData {\r\n    function getRegistrationCount() external returns(uint256);\r\n    function isRegisterAirline(address addressToCheck) external returns(bool registered,bool hasPaid, uint256 votes);\r\n    function changeRegisteration(address addressToRegister, bool registrationState) external;\r\n    function addVote(address addressToPromote, address _promoter) external;\r\n    function getCurrentConsieses() external returns(uint256);\r\n    function payFee(address addressThatPaid) external payable;\r\n    function hasAlreadyVoted(address addressToPromote, address promoter) external returns(bool);\r\n    function addRegisteredFlight(bytes32 key,uint256 price, uint256 time) external;\r\n    function buy(bytes32 key,address buyer, bool withInsurance) external payable;\r\n    function pay(address _address) external;\r\n    function isInsured(bytes32 key, address _address) external returns(bool);\r\n    function getTicketPriceWithInsurance(bytes32 key) external returns(uint256 ticketPrice, uint256 ticketPriceWithInsurance);\r\n    function fund(bytes32 key , address _address) public;\r\n    function creditInsurees(address _address) external returns (uint256);\r\n    function updateFlightStatus(bytes32 key, uint256 status) external;\r\n    function getFlight(bytes32 key) external returns(bool exist,uint256 status,bool registered,uint256 departuretime,uint256 price);\r\n    function isOperational() external returns(bool);\r\n    function hasPaid(address _address) external returns(bool);\r\n  }\r\n/**********************************************************/\r\n",
  "sourcePath": "/home/e11i0t/FlightSuretyt/contracts/FlightSuretyApp.sol",
  "compiler": {
    "name": "solc",
    "version": "0.4.26+commit.4563c3fc.Emscripten.clang"
  },
  "schemaVersion": "2.0.3",
  "updatedAt": "2021-04-27T13:32:28.810Z"
}