{
  "contractName": "FlightSuretyApp",
  "abi": [
    {
      "constant": true,
      "inputs": [],
      "name": "REGISTRATION_FEE",
      "outputs": [
        {
          "name": "",
          "type": "uint256"
        }
      ],
      "payable": false,
      "stateMutability": "view",
      "type": "function",
      "signature": "0x64b4f751"
    },
    {
      "inputs": [
        {
          "name": "dataContract",
          "type": "address"
        }
      ],
      "payable": false,
      "stateMutability": "nonpayable",
      "type": "constructor",
      "signature": "constructor"
    },
    {
      "anonymous": false,
      "inputs": [
        {
          "indexed": false,
          "name": "airline",
          "type": "address"
        },
        {
          "indexed": false,
          "name": "flight",
          "type": "string"
        },
        {
          "indexed": false,
          "name": "timestamp",
          "type": "uint256"
        },
        {
          "indexed": false,
          "name": "status",
          "type": "uint8"
        }
      ],
      "name": "FlightStatusInfo",
      "type": "event",
      "signature": "0xe23f5229de535c091e3b7bec2665f5d698192d3b31393066e8987b7a05076b6c"
    },
    {
      "anonymous": false,
      "inputs": [
        {
          "indexed": false,
          "name": "airline",
          "type": "address"
        },
        {
          "indexed": false,
          "name": "flight",
          "type": "string"
        },
        {
          "indexed": false,
          "name": "timestamp",
          "type": "uint256"
        },
        {
          "indexed": false,
          "name": "status",
          "type": "uint8"
        }
      ],
      "name": "OracleReport",
      "type": "event",
      "signature": "0x43c853095c2752648493c88b4baac4d580d2594ffb00c6f1d4242d844514f783"
    },
    {
      "anonymous": false,
      "inputs": [
        {
          "indexed": false,
          "name": "index",
          "type": "uint8"
        },
        {
          "indexed": false,
          "name": "airline",
          "type": "address"
        },
        {
          "indexed": false,
          "name": "flight",
          "type": "string"
        },
        {
          "indexed": false,
          "name": "timestamp",
          "type": "uint256"
        }
      ],
      "name": "OracleRequest",
      "type": "event",
      "signature": "0x3ed01f2c3fc24c6b329d931e35b03e390d23497d22b3f90e15b600343e93df11"
    },
    {
      "constant": true,
      "inputs": [],
      "name": "isOperational",
      "outputs": [
        {
          "name": "",
          "type": "bool"
        }
      ],
      "payable": false,
      "stateMutability": "pure",
      "type": "function",
      "signature": "0xcd905dff"
    },
    {
      "constant": false,
      "inputs": [
        {
          "name": "airline",
          "type": "address"
        },
        {
          "name": "name",
          "type": "string"
        }
      ],
      "name": "registerAirline",
      "outputs": [
        {
          "name": "success",
          "type": "bool"
        },
        {
          "name": "votes",
          "type": "uint256"
        }
      ],
      "payable": false,
      "stateMutability": "nonpayable",
      "type": "function",
      "signature": "0xee38a749"
    },
    {
      "constant": false,
      "inputs": [
        {
          "name": "flightName",
          "type": "string"
        },
        {
          "name": "updatedTimestamp",
          "type": "uint256"
        },
        {
          "name": "airline",
          "type": "address"
        }
      ],
      "name": "registerFlight",
      "outputs": [],
      "payable": false,
      "stateMutability": "nonpayable",
      "type": "function",
      "signature": "0x65c152f7"
    },
    {
      "constant": false,
      "inputs": [
        {
          "name": "flight",
          "type": "string"
        },
        {
          "name": "_timestamp",
          "type": "uint256"
        },
        {
          "name": "airline",
          "type": "address"
        }
      ],
      "name": "getFlightStatus",
      "outputs": [
        {
          "name": "registered",
          "type": "bool"
        },
        {
          "name": "status",
          "type": "uint256"
        },
        {
          "name": "departuretime",
          "type": "uint256"
        },
        {
          "name": "_key",
          "type": "bytes32"
        }
      ],
      "payable": false,
      "stateMutability": "nonpayable",
      "type": "function",
      "signature": "0x181b8f6f"
    },
    {
      "constant": false,
      "inputs": [
        {
          "name": "airline",
          "type": "address"
        },
        {
          "name": "flight",
          "type": "string"
        },
        {
          "name": "timestamp",
          "type": "uint256"
        }
      ],
      "name": "fetchFlightStatus",
      "outputs": [
        {
          "name": "",
          "type": "bytes32"
        }
      ],
      "payable": false,
      "stateMutability": "nonpayable",
      "type": "function",
      "signature": "0xf83f11c0"
    },
    {
      "constant": false,
      "inputs": [],
      "name": "registerOracle",
      "outputs": [],
      "payable": true,
      "stateMutability": "payable",
      "type": "function",
      "signature": "0x339d2590"
    },
    {
      "constant": true,
      "inputs": [],
      "name": "getMyIndexes",
      "outputs": [
        {
          "name": "",
          "type": "uint8[3]"
        }
      ],
      "payable": false,
      "stateMutability": "view",
      "type": "function",
      "signature": "0x5f1cc0e6"
    },
    {
      "constant": false,
      "inputs": [
        {
          "name": "index",
          "type": "uint8"
        },
        {
          "name": "airline",
          "type": "address"
        },
        {
          "name": "flight",
          "type": "string"
        },
        {
          "name": "timestamp",
          "type": "uint256"
        },
        {
          "name": "statusCode",
          "type": "uint8"
        }
      ],
      "name": "submitOracleResponse",
      "outputs": [],
      "payable": false,
      "stateMutability": "nonpayable",
      "type": "function",
      "signature": "0xc10f2700"
    },
    {
      "constant": false,
      "inputs": [
        {
          "name": "flight",
          "type": "string"
        },
        {
          "name": "_timestamp",
          "type": "uint256"
        },
        {
          "name": "airline",
          "type": "address"
        }
      ],
      "name": "buy",
      "outputs": [],
      "payable": true,
      "stateMutability": "payable",
      "type": "function",
      "signature": "0x365366fb"
    },
    {
      "constant": false,
      "inputs": [
        {
          "name": "buyer",
          "type": "address"
        }
      ],
      "name": "creditAmount",
      "outputs": [
        {
          "name": "",
          "type": "uint256"
        }
      ],
      "payable": false,
      "stateMutability": "nonpayable",
      "type": "function",
      "signature": "0x73e0d3ec"
    },
    {
      "constant": false,
      "inputs": [],
      "name": "fund",
      "outputs": [],
      "payable": true,
      "stateMutability": "payable",
      "type": "function",
      "signature": "0xb60d4288"
    },
    {
      "constant": false,
      "inputs": [
        {
          "name": "_address",
          "type": "address"
        }
      ],
      "name": "isRegistered",
      "outputs": [
        {
          "name": "",
          "type": "bool"
        }
      ],
      "payable": false,
      "stateMutability": "nonpayable",
      "type": "function",
      "signature": "0xc3c5a547"
    },
    {
      "constant": false,
      "inputs": [
        {
          "name": "flight",
          "type": "string"
        },
        {
          "name": "_timestamp",
          "type": "uint256"
        },
        {
          "name": "airline",
          "type": "address"
        }
      ],
      "name": "getPassengers",
      "outputs": [
        {
          "name": "",
          "type": "uint256"
        }
      ],
      "payable": false,
      "stateMutability": "nonpayable",
      "type": "function",
      "signature": "0x78f4c3ee"
    },
    {
      "constant": false,
      "inputs": [
        {
          "name": "_address",
          "type": "address"
        }
      ],
      "name": "payInsuree",
      "outputs": [],
      "payable": false,
      "stateMutability": "nonpayable",
      "type": "function",
      "signature": "0x8a8c82f2"
    }
  ],
  "bytecode": "0x60806040526001600255600160035560006040519080825280602002602001820160405280156200003f5781602001602082028038833980820191505090505b5060059080519060200190620000579291906200025d565b506000600660006101000a81548160ff021916908360ff1602179055503480156200008157600080fd5b5060405160208062002fb18339810180604052810190808051906020019092919050505033600160006101000a81548173ffffffffffffffffffffffffffffffffffffffff021916908373ffffffffffffffffffffffffffffffffffffffff160217905550806000806101000a81548173ffffffffffffffffffffffffffffffffffffffff021916908373ffffffffffffffffffffffffffffffffffffffff1602179055506000809054906101000a900473ffffffffffffffffffffffffffffffffffffffff1673ffffffffffffffffffffffffffffffffffffffff1663e5c685c1600173627306090abab3a6e1400e9345bc60c78a8bef576040518363ffffffff167c01000000000000000000000000000000000000000000000000000000000281526004018080602001841515151581526020018373ffffffffffffffffffffffffffffffffffffffff1673ffffffffffffffffffffffffffffffffffffffff168152602001828103825260098152602001807f45677970742041697200000000000000000000000000000000000000000000008152506020019350505050600060405180830381600087803b1580156200023d57600080fd5b505af115801562000252573d6000803e3d6000fd5b505050505062000332565b828054828255906000526020600020908101928215620002d9579160200282015b82811115620002d85782518260006101000a81548173ffffffffffffffffffffffffffffffffffffffff021916908373ffffffffffffffffffffffffffffffffffffffff160217905550916020019190600101906200027e565b5b509050620002e89190620002ec565b5090565b6200032f91905b808211156200032b57600081816101000a81549073ffffffffffffffffffffffffffffffffffffffff021916905550600101620002f3565b5090565b90565b612c6f80620003426000396000f3006080604052600436106100db576000357c0100000000000000000000000000000000000000000000000000000000900463ffffffff168063181b8f6f146100e0578063339d25901461017a578063365366fb146101845780635f1cc0e6146101dc57806364b4f7511461022f57806365c152f71461025a57806373e0d3ec146102bf57806378f4c3ee146103165780638a8c82f2146103bd578063b60d428814610400578063c10f27001461040a578063c3c5a54714610489578063cd905dff146104e4578063ee38a74914610513578063f83f11c01461058d575b600080fd5b3480156100ec57600080fd5b5061014360048036038101908080359060200190820180359060200191909192939192939080359060200190929190803573ffffffffffffffffffffffffffffffffffffffff16906020019092919050505061060e565b6040518085151515158152602001848152602001838152602001826000191660001916815260200194505050505060405180910390f35b610182610783565b005b6101da60048036038101908080359060200190820180359060200191909192939192939080359060200190929190803573ffffffffffffffffffffffffffffffffffffffff1690602001909291905050506108ab565b005b3480156101e857600080fd5b506101f16109df565b6040518082600360200280838360005b8381101561021c578082015181840152602081019050610201565b5050505090500191505060405180910390f35b34801561023b57600080fd5b50610244610b54565b6040518082815260200191505060405180910390f35b34801561026657600080fd5b506102bd60048036038101908080359060200190820180359060200191909192939192939080359060200190929190803573ffffffffffffffffffffffffffffffffffffffff169060200190929190505050610b60565b005b3480156102cb57600080fd5b50610300600480360381019080803573ffffffffffffffffffffffffffffffffffffffff169060200190929190505050610f06565b6040518082815260200191505060405180910390f35b34801561032257600080fd5b506103a7600480360381019080803590602001908201803590602001908080601f016020809104026020016040519081016040528093929190818152602001838380828437820191505050505050919291929080359060200190929190803573ffffffffffffffffffffffffffffffffffffffff1690602001909291905050506110a2565b6040518082815260200191505060405180910390f35b3480156103c957600080fd5b506103fe600480360381019080803573ffffffffffffffffffffffffffffffffffffffff16906020019092919050505061118f565b005b610408611266565b005b34801561041657600080fd5b50610487600480360381019080803560ff169060200190929190803573ffffffffffffffffffffffffffffffffffffffff16906020019092919080359060200190820180359060200191909192939192939080359060200190929190803560ff16906020019092919050505061141d565b005b34801561049557600080fd5b506104ca600480360381019080803573ffffffffffffffffffffffffffffffffffffffff169060200190929190505050611a36565b604051808215151515815260200191505060405180910390f35b3480156104f057600080fd5b506104f9611b36565b604051808215151515815260200191505060405180910390f35b34801561051f57600080fd5b5061056c600480360381019080803573ffffffffffffffffffffffffffffffffffffffff169060200190929190803590602001908201803590602001919091929391929390505050611b3f565b60405180831515151581526020018281526020019250505060405180910390f35b34801561059957600080fd5b506105f0600480360381019080803573ffffffffffffffffffffffffffffffffffffffff1690602001909291908035906020019082018035906020019190919293919293908035906020019092919050505061229d565b60405180826000191660001916815260200191505060405180910390f35b6000806000806000600115156106b2576040517f08c379a00000000000000000000000000000000000000000000000000000000081526004018080602001828103825260258152602001807f436f6e74726163742069732063757272656e746c79206e6f74206f706572617481526020017f696f6e616c00000000000000000000000000000000000000000000000000000081525060400191505060405180910390fd5b6106ef868a8a8080601f0160208091040260200160405190810160405280939291908181526020018383808284378201915050505050508961250e565b905060046000826000191660001916815260200190815260200160002060000160009054906101000a900460ff1660046000836000191660001916815260200190815260200160002060000160019054906101000a900460ff1660046000846000191660001916815260200190815260200160002060010154838260ff169250945094509450945050945094509450949050565b61078b612a45565b670de0b6b3a7640000341015151561080b576040517f08c379a000000000000000000000000000000000000000000000000000000000815260040180806020018281038252601c8152602001807f526567697374726174696f6e206665652069732072657175697265640000000081525060200191505060405180910390fd5b61081433612633565b9050604080519081016040528060011515815260200182815250600760003373ffffffffffffffffffffffffffffffffffffffff1673ffffffffffffffffffffffffffffffffffffffff16815260200190815260200160002060008201518160000160006101000a81548160ff0219169083151502179055506020820151816001019060036108a4929190612a68565b5090505050565b60006108ea8286868080601f0160208091040260200160405190810160405280939291908181526020018383808284378201915050505050508561250e565b90506000809054906101000a900473ffffffffffffffffffffffffffffffffffffffff1673ffffffffffffffffffffffffffffffffffffffff166378133ffd8233346040518463ffffffff167c01000000000000000000000000000000000000000000000000000000000281526004018084600019166000191681526020018373ffffffffffffffffffffffffffffffffffffffff1673ffffffffffffffffffffffffffffffffffffffff1681526020018281526020019350505050600060405180830381600087803b1580156109c057600080fd5b505af11580156109d4573d6000803e3d6000fd5b505050505050505050565b6109e7612a45565b600760003373ffffffffffffffffffffffffffffffffffffffff1673ffffffffffffffffffffffffffffffffffffffff16815260200190815260200160002060000160009054906101000a900460ff161515610aab576040517f08c379a000000000000000000000000000000000000000000000000000000000815260040180806020018281038252601b8152602001807f4e6f74207265676973746572656420617320616e206f7261636c65000000000081525060200191505060405180910390fd5b600760003373ffffffffffffffffffffffffffffffffffffffff1673ffffffffffffffffffffffffffffffffffffffff168152602001908152602001600020600101600380602002604051908101604052809291908260038015610b4a576020028201916000905b82829054906101000a900460ff1660ff1681526020019060010190602082600001049283019260010382029150808411610b135790505b5050505050905090565b670de0b6b3a764000081565b610b68612b02565b600033600115156000809054906101000a900473ffffffffffffffffffffffffffffffffffffffff1673ffffffffffffffffffffffffffffffffffffffff166368311583836040518263ffffffff167c0100000000000000000000000000000000000000000000000000000000028152600401808273ffffffffffffffffffffffffffffffffffffffff1673ffffffffffffffffffffffffffffffffffffffff168152602001915050602060405180830381600087803b158015610c2b57600080fd5b505af1158015610c3f573d6000803e3d6000fd5b505050506040513d6020811015610c5557600080fd5b81019080805190602001909291905050501515141515610d03576040517f08c379a000000000000000000000000000000000000000000000000000000000815260040180806020018281038252602b8152602001807f43616e206f6e6c79206265207265676973746572656420627920616e2061637481526020017f697665206169726c696e6500000000000000000000000000000000000000000081525060400191505060405180910390fd5b8373ffffffffffffffffffffffffffffffffffffffff163373ffffffffffffffffffffffffffffffffffffffff16141515610dcc576040517f08c379a00000000000000000000000000000000000000000000000000000000081526004018080602001828103825260268152602001807f596f752063616e206f6e6c7920726567697374657220796f7572206f776e206681526020017f6c6967687473000000000000000000000000000000000000000000000000000081525060400191505060405180910390fd5b608060405190810160405280600115158152602001600a60ff1681526020018681526020018573ffffffffffffffffffffffffffffffffffffffff168152509250610e4a8488888080601f0160208091040260200160405190810160405280939291908181526020018383808284378201915050505050508761250e565b91508260046000846000191660001916815260200190815260200160002060008201518160000160006101000a81548160ff02191690831515021790555060208201518160000160016101000a81548160ff021916908360ff1602179055506040820151816001015560608201518160020160006101000a81548173ffffffffffffffffffffffffffffffffffffffff021916908373ffffffffffffffffffffffffffffffffffffffff16021790555090505050505050505050565b600060011515610fa4576040517f08c379a00000000000000000000000000000000000000000000000000000000081526004018080602001828103825260258152602001807f436f6e74726163742069732063757272656e746c79206e6f74206f706572617481526020017f696f6e616c00000000000000000000000000000000000000000000000000000081525060400191505060405180910390fd5b6000809054906101000a900473ffffffffffffffffffffffffffffffffffffffff1673ffffffffffffffffffffffffffffffffffffffff16630a550521836040518263ffffffff167c0100000000000000000000000000000000000000000000000000000000028152600401808273ffffffffffffffffffffffffffffffffffffffff1673ffffffffffffffffffffffffffffffffffffffff168152602001915050602060405180830381600087803b15801561106057600080fd5b505af1158015611074573d6000803e3d6000fd5b505050506040513d602081101561108a57600080fd5b81019080805190602001909291905050509050919050565b6000806110b083868661250e565b90506000809054906101000a900473ffffffffffffffffffffffffffffffffffffffff1673ffffffffffffffffffffffffffffffffffffffff1663c69ad323826040518263ffffffff167c0100000000000000000000000000000000000000000000000000000000028152600401808260001916600019168152602001915050602060405180830381600087803b15801561114a57600080fd5b505af115801561115e573d6000803e3d6000fd5b505050506040513d602081101561117457600080fd5b81019080805190602001909291905050509150509392505050565b6000809054906101000a900473ffffffffffffffffffffffffffffffffffffffff1673ffffffffffffffffffffffffffffffffffffffff16638a8c82f2826040518263ffffffff167c0100000000000000000000000000000000000000000000000000000000028152600401808273ffffffffffffffffffffffffffffffffffffffff1673ffffffffffffffffffffffffffffffffffffffff168152602001915050600060405180830381600087803b15801561124b57600080fd5b505af115801561125f573d6000803e3d6000fd5b5050505050565b600a34101515156112df576040517f08c379a000000000000000000000000000000000000000000000000000000000815260040180806020018281038252601f8152602001807f4d696e696d756d20726571756972656d656e742069732031302065746865720081525060200191505060405180910390fd5b6000809054906101000a900473ffffffffffffffffffffffffffffffffffffffff1673ffffffffffffffffffffffffffffffffffffffff166108fc349081150290604051600060405180830381858888f19350505050158015611346573d6000803e3d6000fd5b506000809054906101000a900473ffffffffffffffffffffffffffffffffffffffff1673ffffffffffffffffffffffffffffffffffffffff166323024408336040518263ffffffff167c0100000000000000000000000000000000000000000000000000000000028152600401808273ffffffffffffffffffffffffffffffffffffffff1673ffffffffffffffffffffffffffffffffffffffff168152602001915050600060405180830381600087803b15801561140357600080fd5b505af1158015611417573d6000803e3d6000fd5b50505050565b60008660ff16600760003373ffffffffffffffffffffffffffffffffffffffff1673ffffffffffffffffffffffffffffffffffffffff168152602001908152602001600020600101600060038110151561147357fe5b602091828204019190069054906101000a900460ff1660ff16148061150257508660ff16600760003373ffffffffffffffffffffffffffffffffffffffff1673ffffffffffffffffffffffffffffffffffffffff16815260200190815260200160002060010160016003811015156114e757fe5b602091828204019190069054906101000a900460ff1660ff16145b8061157757508660ff16600760003373ffffffffffffffffffffffffffffffffffffffff1673ffffffffffffffffffffffffffffffffffffffff168152602001908152602001600020600101600260038110151561155c57fe5b602091828204019190069054906101000a900460ff1660ff16145b1515611611576040517f08c379a00000000000000000000000000000000000000000000000000000000081526004018080602001828103825260238152602001807f496e64657820646f6573206e6f74206d61746368206f7261636c65207265717581526020017f657374000000000000000000000000000000000000000000000000000000000081525060400191505060405180910390fd5b8686868686604051602001808660ff1660ff167f01000000000000000000000000000000000000000000000000000000000000000281526001018573ffffffffffffffffffffffffffffffffffffffff1673ffffffffffffffffffffffffffffffffffffffff166c010000000000000000000000000281526014018484808284378201915050828152602001955050505050506040516020818303038152906040526040518082805190602001908083835b6020831015156116e857805182526020820191506020810190506020830392506116c3565b6001836020036101000a0380198251168184511680821785525050505050509050019150506040518091039020905060086000826000191660001916815260200190815260200160002060000160149054906101000a900460ff1615156117dd576040517f08c379a000000000000000000000000000000000000000000000000000000000815260040180806020018281038252602f8152602001807f466c69676874206f722074696d657374616d7020646f206e6f74206d6174636881526020017f206f7261636c652072657175657374000000000000000000000000000000000081525060400191505060405180910390fd5b60086000826000191660001916815260200190815260200160002060010160008360ff1660ff1681526020019081526020016000203390806001815401808255809150509060018203906000526020600020016000909192909190916101000a81548173ffffffffffffffffffffffffffffffffffffffff021916908373ffffffffffffffffffffffffffffffffffffffff160217905550507f43c853095c2752648493c88b4baac4d580d2594ffb00c6f1d4242d844514f7838686868686604051808673ffffffffffffffffffffffffffffffffffffffff1673ffffffffffffffffffffffffffffffffffffffff168152602001806020018481526020018360ff1660ff16815260200182810382528686828181526020019250808284378201915050965050505050505060405180910390a1600360086000836000191660001916815260200190815260200160002060010160008460ff1660ff16815260200190815260200160002080549050101515611a2d577fe23f5229de535c091e3b7bec2665f5d698192d3b31393066e8987b7a05076b6c8686868686604051808673ffffffffffffffffffffffffffffffffffffffff1673ffffffffffffffffffffffffffffffffffffffff168152602001806020018481526020018360ff1660ff16815260200182810382528686828181526020019250808284378201915050965050505050505060405180910390a1611a2c8686868080601f01602080910402602001604051908101604052809392919081815260200183838082843782019150505050505085856127d9565b5b50505050505050565b60008060009054906101000a900473ffffffffffffffffffffffffffffffffffffffff1673ffffffffffffffffffffffffffffffffffffffff1663c3c5a547836040518263ffffffff167c0100000000000000000000000000000000000000000000000000000000028152600401808273ffffffffffffffffffffffffffffffffffffffff1673ffffffffffffffffffffffffffffffffffffffff168152602001915050602060405180830381600087803b158015611af457600080fd5b505af1158015611b08573d6000803e3d6000fd5b505050506040513d6020811015611b1e57600080fd5b81019080805190602001909291905050509050919050565b60006001905090565b60008060008086600115156000809054906101000a900473ffffffffffffffffffffffffffffffffffffffff1673ffffffffffffffffffffffffffffffffffffffff166363e87944836040518263ffffffff167c0100000000000000000000000000000000000000000000000000000000028152600401808273ffffffffffffffffffffffffffffffffffffffff1673ffffffffffffffffffffffffffffffffffffffff168152602001915050602060405180830381600087803b158015611c0657600080fd5b505af1158015611c1a573d6000803e3d6000fd5b505050506040513d6020811015611c3057600080fd5b81019080805190602001909291905050501515141515611cb8576040517f08c379a000000000000000000000000000000000000000000000000000000000815260040180806020018281038252601a8152602001807f4169726c696e6520616c7265616479207265676973746572656400000000000081525060200191505060405180910390fd5b33600115156000809054906101000a900473ffffffffffffffffffffffffffffffffffffffff1673ffffffffffffffffffffffffffffffffffffffff166368311583836040518263ffffffff167c0100000000000000000000000000000000000000000000000000000000028152600401808273ffffffffffffffffffffffffffffffffffffffff1673ffffffffffffffffffffffffffffffffffffffff168152602001915050602060405180830381600087803b158015611d7957600080fd5b505af1158015611d8d573d6000803e3d6000fd5b505050506040513d6020811015611da357600080fd5b81019080805190602001909291905050501515141515611e51576040517f08c379a000000000000000000000000000000000000000000000000000000000815260040180806020018281038252602b8152602001807f43616e206f6e6c79206265207265676973746572656420627920616e2061637481526020017f697665206169726c696e6500000000000000000000000000000000000000000081525060400191505060405180910390fd5b600094506000955060046002541015611f82576000809054906101000a900473ffffffffffffffffffffffffffffffffffffffff1673ffffffffffffffffffffffffffffffffffffffff1663e5c685c1898960008d6040518563ffffffff167c01000000000000000000000000000000000000000000000000000000000281526004018080602001841515151581526020018373ffffffffffffffffffffffffffffffffffffffff1673ffffffffffffffffffffffffffffffffffffffff1681526020018281038252868682818152602001925080828437820191505095505050505050600060405180830381600087803b158015611f4f57600080fd5b505af1158015611f63573d6000803e3d6000fd5b5050505060026000815480929190600101919050555060019550612277565b60009350600092505b60058054905083101561201b573373ffffffffffffffffffffffffffffffffffffffff16600584815481101515611fbe57fe5b9060005260206000200160009054906101000a900473ffffffffffffffffffffffffffffffffffffffff1673ffffffffffffffffffffffffffffffffffffffff16141561200e576001935061201b565b8280600101935050611f8b565b60001515841515141515612097576040517f08c379a00000000000000000000000000000000000000000000000000000000081526004018080602001828103825260158152602001807f4169726c696e6520616c726561647920766f746564000000000000000000000081525060200191505060405180910390fd5b60053390806001815401808255809150509060018203906000526020600020016000909192909190916101000a81548173ffffffffffffffffffffffffffffffffffffffff021916908373ffffffffffffffffffffffffffffffffffffffff160217905550506005805490509450600354600580549050101515612276576000809054906101000a900473ffffffffffffffffffffffffffffffffffffffff1673ffffffffffffffffffffffffffffffffffffffff1663e5c685c189896000336040518563ffffffff167c01000000000000000000000000000000000000000000000000000000000281526004018080602001841515151581526020018373ffffffffffffffffffffffffffffffffffffffff1673ffffffffffffffffffffffffffffffffffffffff1681526020018281038252868682818152602001925080828437820191505095505050505050600060405180830381600087803b15801561220057600080fd5b505af1158015612214573d6000803e3d6000fd5b5050505060026000815480929190600101919050555060019550600060405190808252806020026020018201604052801561225e5781602001602082028038833980820191505090505b5060059080519060200190612274929190612b46565b505b5b6002805481151561228457fe5b0460038190555085859550955050505050935093915050565b60008060006122ab336128e3565b91508187878787604051602001808660ff1660ff167f01000000000000000000000000000000000000000000000000000000000000000281526001018573ffffffffffffffffffffffffffffffffffffffff1673ffffffffffffffffffffffffffffffffffffffff166c010000000000000000000000000281526014018484808284378201915050828152602001955050505050506040516020818303038152906040526040518082805190602001908083835b602083101515612384578051825260208201915060208101905060208303925061235f565b6001836020036101000a0380198251168184511680821785525050505050509050019150506040518091039020905060408051908101604052803373ffffffffffffffffffffffffffffffffffffffff1681526020016001151581525060086000836000191660001916815260200190815260200160002060008201518160000160006101000a81548173ffffffffffffffffffffffffffffffffffffffff021916908373ffffffffffffffffffffffffffffffffffffffff16021790555060208201518160000160146101000a81548160ff0219169083151502179055509050507f3ed01f2c3fc24c6b329d931e35b03e390d23497d22b3f90e15b600343e93df118288888888604051808660ff1660ff1681526020018573ffffffffffffffffffffffffffffffffffffffff1673ffffffffffffffffffffffffffffffffffffffff1681526020018060200183815260200182810382528585828181526020019250808284378201915050965050505050505060405180910390a18092505050949350505050565b6000838383604051602001808473ffffffffffffffffffffffffffffffffffffffff1673ffffffffffffffffffffffffffffffffffffffff166c0100000000000000000000000002815260140183805190602001908083835b60208310151561258c5780518252602082019150602081019050602083039250612567565b6001836020036101000a03801982511681845116808217855250505050505090500182815260200193505050506040516020818303038152906040526040518082805190602001908083835b6020831015156125fd57805182526020820191506020810190506020830392506125d8565b6001836020036101000a038019825116818451168082178552505050505050905001915050604051809103902090509392505050565b61263b612a45565b612643612a45565b61264c836128e3565b81600060038110151561265b57fe5b602002019060ff16908160ff168152505080600060038110151561267b57fe5b602002015181600160038110151561268f57fe5b602002019060ff16908160ff16815250505b8060006003811015156126b057fe5b602002015160ff168160016003811015156126c757fe5b602002015160ff161415612703576126de836128e3565b8160016003811015156126ed57fe5b602002019060ff16908160ff16815250506126a1565b80600160038110151561271257fe5b602002015181600260038110151561272657fe5b602002019060ff16908160ff16815250505b80600060038110151561274757fe5b602002015160ff1681600260038110151561275e57fe5b602002015160ff16148061279d575080600160038110151561277c57fe5b602002015160ff1681600260038110151561279357fe5b602002015160ff16145b156127d0576127ab836128e3565b8160026003811015156127ba57fe5b602002019060ff16908160ff1681525050612738565b80915050919050565b60006127e685858561250e565b90508160046000836000191660001916815260200190815260200160002060000160016101000a81548160ff021916908360ff16021790555060148260ff1614156128dc576000809054906101000a900473ffffffffffffffffffffffffffffffffffffffff1673ffffffffffffffffffffffffffffffffffffffff1663cc2f6eba826040518263ffffffff167c0100000000000000000000000000000000000000000000000000000000028152600401808260001916600019168152602001915050600060405180830381600087803b1580156128c357600080fd5b505af11580156128d7573d6000803e3d6000fd5b505050505b5050505050565b6000806000600a91508160ff166006600081819054906101000a900460ff168092919060010191906101000a81548160ff021916908360ff16021790555060ff16430340856040516020018083600019166000191681526020018273ffffffffffffffffffffffffffffffffffffffff1673ffffffffffffffffffffffffffffffffffffffff166c01000000000000000000000000028152601401925050506040516020818303038152906040526040518082805190602001908083835b6020831015156129c657805182526020820191506020810190506020830392506129a1565b6001836020036101000a038019825116818451168082178552505050505050905001915050604051809103902060019004811515612a0057fe5b06905060fa600660009054906101000a900460ff1660ff161115612a3b576000600660006101000a81548160ff021916908360ff1602179055505b8092505050919050565b606060405190810160405280600390602082028038833980820191505090505090565b826003601f01602090048101928215612af15791602002820160005b83821115612ac257835183826101000a81548160ff021916908360ff1602179055509260200192600101602081600001049283019260010302612a84565b8015612aef5782816101000a81549060ff0219169055600101602081600001049283019260010302612ac2565b505b509050612afe9190612bd0565b5090565b608060405190810160405280600015158152602001600060ff16815260200160008152602001600073ffffffffffffffffffffffffffffffffffffffff1681525090565b828054828255906000526020600020908101928215612bbf579160200282015b82811115612bbe5782518260006101000a81548173ffffffffffffffffffffffffffffffffffffffff021916908373ffffffffffffffffffffffffffffffffffffffff16021790555091602001919060010190612b66565b5b509050612bcc9190612c00565b5090565b612bfd91905b80821115612bf957600081816101000a81549060ff021916905550600101612bd6565b5090565b90565b612c4091905b80821115612c3c57600081816101000a81549073ffffffffffffffffffffffffffffffffffffffff021916905550600101612c06565b5090565b905600a165627a7a72305820c0514852551968f9a3b84ad9cdd432e6ef5be16f5e8e7dcf5630728e1b1cf75f0029",
  "source": "pragma solidity ^0.4.25;\n\n// It's important to avoid vulnerabilities due to numeric overflow bugs\n// OpenZeppelin's SafeMath library, when used correctly, protects agains such bugs\n// More info: https://www.nccgroup.trust/us/about-us/newsroom-and-events/blog/2018/november/smart-contract-insecurity-bad-arithmetic/\n\nimport \"../node_modules/openzeppelin-solidity/contracts/math/SafeMath.sol\";\n\n/************************************************** */\n/* FlightSurety Smart Contract                      */\n/************************************************** */\ncontract FlightSuretyApp {\n    using SafeMath for uint256; // Allow SafeMath functions to be called for all uint256 types (similar to \"prototype\" in Javascript)\n\n    /********************************************************************************************/\n    /*                                       DATA VARIABLES                                     */\n    /********************************************************************************************/\n\n    // Flight status codees\n    uint8 private constant STATUS_CODE_UNKNOWN = 0;\n    uint8 private constant STATUS_CODE_ON_TIME = 10;\n    uint8 private constant STATUS_CODE_LATE_AIRLINE = 20;\n    uint8 private constant STATUS_CODE_LATE_WEATHER = 30;\n    uint8 private constant STATUS_CODE_LATE_TECHNICAL = 40;\n    uint8 private constant STATUS_CODE_LATE_OTHER = 50;\n\n    FlightSuretyData flightSuretyData;\n    address private contractOwner;          // Account used to deploy contract\n    uint256 no_airlines = 1;\n    uint256 M = 1;\n\n    struct Flight {\n        bool isRegistered;\n        uint8 statusCode;\n        uint256 updatedTimestamp;        \n        address airline;\n    }\n    mapping(bytes32 => Flight) private flights;\n    address [] multiCallers = new address[](0);\n \n    /********************************************************************************************/\n    /*                                       FUNCTION MODIFIERS                                 */\n    /********************************************************************************************/\n\n    // Modifiers help avoid duplication of code. They are typically used to validate something\n    // before a function is allowed to be executed.\n\n    /**\n    * @dev Modifier that requires the \"operational\" boolean variable to be \"true\"\n    *      This is used on all state changing functions to pause the contract in \n    *      the event there is an issue that needs to be fixed\n    */\n    modifier requireIsOperational() \n    {\n         // Modify to call data contract's status\n        require(true, \"Contract is currently not operational\");  \n        _;  // All modifiers require an \"_\" which indicates where the function body will be added\n    }\n\n    /**\n    * @dev Modifier that requires the \"ContractOwner\" account to be the function caller\n    */\n    modifier requireContractOwner()\n    {\n        require(msg.sender == contractOwner, \"Caller is not contract owner\");\n        _;\n    }\n\n    modifier isActiveAirline(address airlineAddress)\n    {\n        require(flightSuretyData.isActiveAirline(airlineAddress)== true, \"Can only be registered by an active airline\");\n        _;\n    }\n\n    modifier existsAirline(address airlineAddress)\n    {\n        require(flightSuretyData.existsAirline(airlineAddress)== true, \"Airline already registered\");\n        _;\n    }\n\n    /********************************************************************************************/\n    /*                                       CONSTRUCTOR                                        */\n    /********************************************************************************************/\n\n    /**\n    * @dev Contract constructor\n    *\n    */\n    constructor\n                                (\n                                    address dataContract\n                                ) \n                                public \n    {\n        contractOwner = msg.sender;\n        flightSuretyData = FlightSuretyData(dataContract);\n\n        flightSuretyData.registerAirline(\"Egypt Air\", true,address(0x627306090abaB3A6e1400e9345bC60c78a8BEf57));\n    }\n\n    /********************************************************************************************/\n    /*                                       UTILITY FUNCTIONS                                  */\n    /********************************************************************************************/\n\n    function isOperational() \n                            public \n                            pure \n                            returns(bool) \n    {\n        return true;  // Modify to call data contract's status\n    }\n\n    /********************************************************************************************/\n    /*                                     SMART CONTRACT FUNCTIONS                             */\n    /********************************************************************************************/\n\n  \n   /**\n    * @dev Add an airline to the registration queue\n    *\n    */   \n    function registerAirline\n                            (\n                                address airline,\n                                string name   \n                            )\n                            external\n                            existsAirline(airline)\n                            isActiveAirline(msg.sender)\n                            returns(bool success, uint256 votes)\n                                    \n    {\n        votes = 0;\n        success = false;\n        if(no_airlines<4){\n            flightSuretyData.registerAirline(name,false, airline);\n            no_airlines++;\n            success = true;\n        }else{\n            bool isDuplicate = false;\n            for (uint256 c = 0; c<multiCallers.length;c++){\n                if(multiCallers[c]==msg.sender){\n                    isDuplicate = true;\n                    break;\n                }\n            }\n            require(isDuplicate==false, \"Airline already voted\");\n            multiCallers.push(msg.sender);\n            votes = multiCallers.length;\n            if(multiCallers.length>=M){\n                flightSuretyData.registerAirline(name, false, msg.sender);\n                no_airlines++;\n                success = true;\n                multiCallers = new address[](0);\n            }\n        }\n\n        M = no_airlines/2;\n        return (success, votes);\n    }\n\n\n   /**\n    * @dev Register a future flight for insuring.\n    *\n    */  \n    function registerFlight\n                                (\n                                    //bool isRegistered;\n                                    //uint8 statusCode;\n                                    string flightName,\n                                    uint256 updatedTimestamp,        \n                                    address airline\n                                )\n                                external\n                                isActiveAirline(msg.sender)\n    {\n        require(msg.sender == airline, \"You can only register your own flights\");\n        Flight memory flight = Flight(true, 10, updatedTimestamp, airline);\n        bytes32 key = getFlightKey(airline, flightName, updatedTimestamp);\n        flights[key] = flight;\n    }\n    \n   /**\n    * @dev Called after oracle has updated flight status\n    *\n    */  \n    function processFlightStatus\n                                (\n                                    address airline,\n                                    string memory flight,\n                                    uint256 timestamp,\n                                    uint8 statusCode\n                                )\n                                internal\n    {\n        bytes32 key = getFlightKey(airline, flight, timestamp);\n        flights[key].statusCode = statusCode;\n        if(statusCode==20){\n            flightSuretyData.creditInsurees(key);\n        }\n    }\n\n    function getFlightStatus(string flight ,uint256 _timestamp, address airline) external\n      requireIsOperational()\n      returns(bool registered, uint256 status,uint256 departuretime, bytes32 _key)\n      {\n        bytes32 key = getFlightKey(airline, flight, _timestamp);\n        return (flights[key].isRegistered, flights[key].statusCode, flights[key].updatedTimestamp ,key) ;\n      }\n    // Generate a request for oracles to fetch flight information\n    function fetchFlightStatus\n                        (\n                            address airline,\n                            string flight,\n                            uint256 timestamp                            \n                        )\n                        external\n                        returns (bytes32)\n    {\n        uint8 index = getRandomIndex(msg.sender);\n\n        // Generate a unique key for storing the request\n        bytes32 key = keccak256(abi.encodePacked(index, airline, flight, timestamp));\n        oracleResponses[key] = ResponseInfo({\n                                                requester: msg.sender,\n                                                isOpen: true\n                                            });\n\n        emit OracleRequest(index, airline, flight, timestamp);\n        return key;\n    } \n\n\n// region ORACLE MANAGEMENT\n\n    // Incremented to add pseudo-randomness at various points\n    uint8 private nonce = 0;    \n\n    // Fee to be paid when registering oracle\n    uint256 public constant REGISTRATION_FEE = 1 ether;\n\n    // Number of oracles that must respond for valid status\n    uint256 private constant MIN_RESPONSES = 3;\n\n\n    struct Oracle {\n        bool isRegistered;\n        uint8[3] indexes;        \n    }\n\n    // Track all registered oracles\n    mapping(address => Oracle) private oracles;\n\n    // Model for responses from oracles\n    struct ResponseInfo {\n        address requester;                              // Account that requested status\n        bool isOpen;                                    // If open, oracle responses are accepted\n        mapping(uint8 => address[]) responses;          // Mapping key is the status code reported\n                                                        // This lets us group responses and identify\n                                                        // the response that majority of the oracles\n    }\n\n    // Track all oracle responses\n    // Key = hash(index, flight, timestamp)\n    mapping(bytes32 => ResponseInfo) private oracleResponses;\n\n    // Event fired each time an oracle submits a response\n    event FlightStatusInfo(address airline, string flight, uint256 timestamp, uint8 status);\n\n    event OracleReport(address airline, string flight, uint256 timestamp, uint8 status);\n\n    // Event fired when flight status request is submitted\n    // Oracles track this and if they have a matching index\n    // they fetch data and submit a response\n    event OracleRequest(uint8 index, address airline, string flight, uint256 timestamp);\n\n\n    // Register an oracle with the contract\n    function registerOracle\n                            (\n                            )\n                            external\n                            payable\n    {\n        // Require registration fee\n        require(msg.value >= REGISTRATION_FEE, \"Registration fee is required\");\n\n        uint8[3] memory indexes = generateIndexes(msg.sender);\n\n        oracles[msg.sender] = Oracle({\n                                        isRegistered: true,\n                                        indexes: indexes\n                                    });\n    }\n\n    function getMyIndexes\n                            (\n                            )\n                            view\n                            external\n                            returns(uint8[3])\n    {\n        require(oracles[msg.sender].isRegistered, \"Not registered as an oracle\");\n\n        return oracles[msg.sender].indexes;\n    }\n\n\n\n\n    // Called by oracle when a response is available to an outstanding request\n    // For the response to be accepted, there must be a pending request that is open\n    // and matches one of the three Indexes randomly assigned to the oracle at the\n    // time of registration (i.e. uninvited oracles are not welcome)\n    function submitOracleResponse\n                        (\n                            uint8 index,\n                            address airline,\n                            string flight,\n                            uint256 timestamp,\n                            uint8 statusCode\n                        )\n                        external\n    {\n        require((oracles[msg.sender].indexes[0] == index) || (oracles[msg.sender].indexes[1] == index) || (oracles[msg.sender].indexes[2] == index), \"Index does not match oracle request\");\n\n\n        bytes32 key = keccak256(abi.encodePacked(index, airline, flight, timestamp)); \n        require(oracleResponses[key].isOpen, \"Flight or timestamp do not match oracle request\");\n\n        oracleResponses[key].responses[statusCode].push(msg.sender);\n\n        // Information isn't considered verified until at least MIN_RESPONSES\n        // oracles respond with the *** same *** information\n        emit OracleReport(airline, flight, timestamp, statusCode);\n        if (oracleResponses[key].responses[statusCode].length >= MIN_RESPONSES) {\n\n            emit FlightStatusInfo(airline, flight, timestamp, statusCode);\n\n            // Handle flight status as appropriate\n            processFlightStatus(airline, flight, timestamp, statusCode);\n        }\n    }\n\n\n    function getFlightKey\n                        (\n                            address airline,\n                            string flight,\n                            uint256 timestamp\n                        )\n                        pure\n                        internal\n                        returns(bytes32) \n    {\n        return keccak256(abi.encodePacked(airline, flight, timestamp));\n    }\n\n    // Returns array of three non-duplicating integers from 0-9\n    function generateIndexes\n                            (                       \n                                address account         \n                            )\n                            internal\n                            returns(uint8[3])\n    {\n        uint8[3] memory indexes;\n        indexes[0] = getRandomIndex(account);\n        \n        indexes[1] = indexes[0];\n        while(indexes[1] == indexes[0]) {\n            indexes[1] = getRandomIndex(account);\n        }\n\n        indexes[2] = indexes[1];\n        while((indexes[2] == indexes[0]) || (indexes[2] == indexes[1])) {\n            indexes[2] = getRandomIndex(account);\n        }\n\n        return indexes;\n    }\n\n    // Returns array of three non-duplicating integers from 0-9\n    function getRandomIndex\n                            (\n                                address account\n                            )\n                            internal\n                            returns (uint8)\n    {\n        uint8 maxValue = 10;\n\n        // Pseudo random number...the incrementing nonce adds variation\n        uint8 random = uint8(uint256(keccak256(abi.encodePacked(blockhash(block.number - nonce++), account))) % maxValue);\n\n        if (nonce > 250) {\n            nonce = 0;  // Can only fetch blockhashes for last 256 blocks so we adapt\n        }\n\n        return random;\n    }\n\n// endregion\n    function buy\n                            (\n                                string flight ,\n                                uint256 _timestamp, \n                                address airline\n                            )\n                            external\n                            payable\n    {\n        bytes32 key = getFlightKey(airline, flight, _timestamp);\n        //address(flightSuretyData).transfer(2);\n        flightSuretyData.buy(key,msg.sender,msg.value);\n    }\n\n    function creditAmount   (\n                                address buyer\n                            ) \n    external \n      requireIsOperational()\n      returns (uint256)\n      {\n        return(flightSuretyData.getAmounts(buyer));\n      }\n\n         /**\n    * @dev Initial funding for the insurance. Unless there are too many delayed flights\n    *      resulting in insurance payouts, the contract should be self-sustaining\n    *\n    */   \n    function fund\n                            (\n                            )\n                            public\n                            payable\n    {\n        require(msg.value>=10, \"Minimum requirement is 10 ether\");\n        //address receiver = address(flightSuretyData);\n        address(flightSuretyData).transfer(msg.value);\n        flightSuretyData.fund(msg.sender);\n    }\n    function isRegistered\n                            (\n                                address _address\n                            )\n                            public\n                            returns (bool)\n    {\n        return flightSuretyData.isRegistered(_address);\n    }\n\n    function getPassengers\n                            (\n                                string flight,\n                                uint256 _timestamp,\n                                address airline\n                            )\n                            public\n                            returns (uint256)\n    {\n        bytes32 key = getFlightKey(airline, flight, _timestamp);\n        return flightSuretyData.getPassengers(key);\n    }\n\n    function payInsuree \n                        (\n                            address _address\n                        )\n                        public\n    {\n        //_address.transfer(200000);\n        flightSuretyData.payInsuree(_address);\n    }\n\n}   \n\ncontract FlightSuretyData {\n    function registerAirline(string name, bool activated, address _addr) external;\n    function isActiveAirline(address airlineAddress) external returns(bool);\n    function existsAirline(address airlineAddress) external returns(bool);\n    function creditInsurees(bytes32 key) external;\n    function buy(bytes32 flight, address buyer, uint256 amount) external;\n    function getAmounts(address _address) external returns (uint256);\n    function fund(address) external;\n    function isRegistered(address) external returns (bool);\n    function getPassengers(bytes32 key) external returns (uint256);\n    function payInsuree(address) public;\n}",
  "sourcePath": "/home/burp/FlightSurety/contracts/FlightSuretyApp.sol",
  "compiler": {
    "name": "solc",
    "version": "0.4.26+commit.4563c3fc.Emscripten.clang"
  },
  "schemaVersion": "3.0.1",
  "updatedAt": "2021-05-16T13:55:01.779Z",
  "devdoc": {
    "methods": {
      "fund()": {
        "details": "Initial funding for the insurance. Unless there are too many delayed flights     resulting in insurance payouts, the contract should be self-sustaining    "
      },
      "registerAirline(address,string)": {
        "details": "Add an airline to the registration queue    "
      },
      "registerFlight(string,uint256,address)": {
        "details": "Register a future flight for insuring.    "
      }
    }
  },
  "userdoc": {
    "methods": {
      "isOperational()": {
        "notice": "*****************************************************************************************"
      }
    }
  }
}