{
  "contractName": "FlightSuretyApp",
  "abi": [
    {
      "constant": true,
      "inputs": [],
      "name": "REGISTRATION_FEE",
      "outputs": [
        {
          "name": "",
          "type": "uint256"
        }
      ],
      "payable": false,
      "stateMutability": "view",
      "type": "function"
    },
    {
      "inputs": [
        {
          "name": "dataContract",
          "type": "address"
        }
      ],
      "payable": false,
      "stateMutability": "nonpayable",
      "type": "constructor"
    },
    {
      "anonymous": false,
      "inputs": [
        {
          "indexed": false,
          "name": "airline",
          "type": "address"
        },
        {
          "indexed": false,
          "name": "flight",
          "type": "string"
        },
        {
          "indexed": false,
          "name": "timestamp",
          "type": "uint256"
        },
        {
          "indexed": false,
          "name": "status",
          "type": "uint8"
        }
      ],
      "name": "FlightStatusInfo",
      "type": "event"
    },
    {
      "anonymous": false,
      "inputs": [
        {
          "indexed": false,
          "name": "airline",
          "type": "address"
        },
        {
          "indexed": false,
          "name": "flight",
          "type": "string"
        },
        {
          "indexed": false,
          "name": "timestamp",
          "type": "uint256"
        },
        {
          "indexed": false,
          "name": "status",
          "type": "uint8"
        }
      ],
      "name": "OracleReport",
      "type": "event"
    },
    {
      "anonymous": false,
      "inputs": [
        {
          "indexed": false,
          "name": "index",
          "type": "uint8"
        },
        {
          "indexed": false,
          "name": "airline",
          "type": "address"
        },
        {
          "indexed": false,
          "name": "flight",
          "type": "string"
        },
        {
          "indexed": false,
          "name": "timestamp",
          "type": "uint256"
        }
      ],
      "name": "OracleRequest",
      "type": "event"
    },
    {
      "constant": true,
      "inputs": [],
      "name": "isOperational",
      "outputs": [
        {
          "name": "",
          "type": "bool"
        }
      ],
      "payable": false,
      "stateMutability": "pure",
      "type": "function"
    },
    {
      "constant": false,
      "inputs": [
        {
          "name": "name",
          "type": "string"
        }
      ],
      "name": "registerAirline",
      "outputs": [
        {
          "name": "success",
          "type": "bool"
        },
        {
          "name": "votes",
          "type": "uint256"
        }
      ],
      "payable": false,
      "stateMutability": "nonpayable",
      "type": "function"
    },
    {
      "constant": false,
      "inputs": [
        {
          "name": "flightName",
          "type": "string"
        },
        {
          "name": "updatedTimestamp",
          "type": "uint256"
        },
        {
          "name": "airline",
          "type": "address"
        }
      ],
      "name": "registerFlight",
      "outputs": [],
      "payable": false,
      "stateMutability": "nonpayable",
      "type": "function"
    },
    {
      "constant": false,
      "inputs": [
        {
          "name": "airline",
          "type": "address"
        },
        {
          "name": "flight",
          "type": "string"
        },
        {
          "name": "timestamp",
          "type": "uint256"
        }
      ],
      "name": "fetchFlightStatus",
      "outputs": [],
      "payable": false,
      "stateMutability": "nonpayable",
      "type": "function"
    },
    {
      "constant": false,
      "inputs": [],
      "name": "registerOracle",
      "outputs": [],
      "payable": true,
      "stateMutability": "payable",
      "type": "function"
    },
    {
      "constant": true,
      "inputs": [],
      "name": "getMyIndexes",
      "outputs": [
        {
          "name": "",
          "type": "uint8[3]"
        }
      ],
      "payable": false,
      "stateMutability": "view",
      "type": "function"
    },
    {
      "constant": false,
      "inputs": [
        {
          "name": "index",
          "type": "uint8"
        },
        {
          "name": "airline",
          "type": "address"
        },
        {
          "name": "flight",
          "type": "string"
        },
        {
          "name": "timestamp",
          "type": "uint256"
        },
        {
          "name": "statusCode",
          "type": "uint8"
        }
      ],
      "name": "submitOracleResponse",
      "outputs": [],
      "payable": false,
      "stateMutability": "nonpayable",
      "type": "function"
    }
  ],
  "bytecode": "0x60806040526001600255600160035560006040519080825280602002602001820160405280156200003f5781602001602082028038833980820191505090505b50600590805190602001906200005792919062000215565b506000600660006101000a81548160ff021916908360ff1602179055503480156200008157600080fd5b506040516020806200216d8339810180604052810190808051906020019092919050505033600160006101000a81548173ffffffffffffffffffffffffffffffffffffffff021916908373ffffffffffffffffffffffffffffffffffffffff160217905550806000806101000a81548173ffffffffffffffffffffffffffffffffffffffff021916908373ffffffffffffffffffffffffffffffffffffffff1602179055506000809054906101000a900473ffffffffffffffffffffffffffffffffffffffff1673ffffffffffffffffffffffffffffffffffffffff1663c5dc246f60016040518263ffffffff167c0100000000000000000000000000000000000000000000000000000000028152600401808060200183151515158152602001828103825260098152602001807f456779707420616972000000000000000000000000000000000000000000000081525060200192505050600060405180830381600087803b158015620001f557600080fd5b505af11580156200020a573d6000803e3d6000fd5b5050505050620002ea565b82805482825590600052602060002090810192821562000291579160200282015b82811115620002905782518260006101000a81548173ffffffffffffffffffffffffffffffffffffffff021916908373ffffffffffffffffffffffffffffffffffffffff1602179055509160200191906001019062000236565b5b509050620002a09190620002a4565b5090565b620002e791905b80821115620002e357600081816101000a81549073ffffffffffffffffffffffffffffffffffffffff021916905550600101620002ab565b5090565b90565b611e7380620002fa6000396000f30060806040526004361061008e576000357c0100000000000000000000000000000000000000000000000000000000900463ffffffff1680632520521014610093578063339d2590146100ed5780635f1cc0e6146100f757806364b4f7511461014a57806365c152f714610175578063c10f2700146101da578063cd905dff14610259578063f83f11c014610288575b600080fd5b34801561009f57600080fd5b506100cc6004803603810190808035906020019082018035906020019190919293919293905050506102ed565b60405180831515151581526020018281526020019250505060405180910390f35b6100f561086e565b005b34801561010357600080fd5b5061010c610996565b6040518082600360200280838360005b8381101561013757808201518184015260208101905061011c565b5050505090500191505060405180910390f35b34801561015657600080fd5b5061015f610b0b565b6040518082815260200191505060405180910390f35b34801561018157600080fd5b506101d860048036038101908080359060200190820180359060200191909192939192939080359060200190929190803573ffffffffffffffffffffffffffffffffffffffff169060200190929190505050610b17565b005b3480156101e657600080fd5b50610257600480360381019080803560ff169060200190929190803573ffffffffffffffffffffffffffffffffffffffff16906020019092919080359060200190820180359060200191909192939192939080359060200190929190803560ff169060200190929190505050610ebd565b005b34801561026557600080fd5b5061026e6114d6565b604051808215151515815260200191505060405180910390f35b34801561029457600080fd5b506102eb600480360381019080803573ffffffffffffffffffffffffffffffffffffffff169060200190929190803590602001908201803590602001919091929391929390803590602001909291905050506114df565b005b60008060008033600115156000809054906101000a900473ffffffffffffffffffffffffffffffffffffffff1673ffffffffffffffffffffffffffffffffffffffff166368311583836040518263ffffffff167c0100000000000000000000000000000000000000000000000000000000028152600401808273ffffffffffffffffffffffffffffffffffffffff1673ffffffffffffffffffffffffffffffffffffffff168152602001915050602060405180830381600087803b1580156103b457600080fd5b505af11580156103c8573d6000803e3d6000fd5b505050506040513d60208110156103de57600080fd5b8101908080519060200190929190505050151514151561048c576040517f08c379a000000000000000000000000000000000000000000000000000000000815260040180806020018281038252602b8152602001807f43616e206f6e6c79206265207265676973746572656420627920616e2061637481526020017f697665206169726c696e6500000000000000000000000000000000000000000081525060400191505060405180910390fd5b600093506000945060046002541015610589576000809054906101000a900473ffffffffffffffffffffffffffffffffffffffff1673ffffffffffffffffffffffffffffffffffffffff1663c5dc246f888860006040518463ffffffff167c010000000000000000000000000000000000000000000000000000000002815260040180806020018315151515815260200182810382528585828181526020019250808284378201915050945050505050600060405180830381600087803b15801561055657600080fd5b505af115801561056a573d6000803e3d6000fd5b505050506002600081548092919060010191905055506001945061084a565b60009250600091505b600580549050821015610622573373ffffffffffffffffffffffffffffffffffffffff166005838154811015156105c557fe5b9060005260206000200160009054906101000a900473ffffffffffffffffffffffffffffffffffffffff1673ffffffffffffffffffffffffffffffffffffffff1614156106155760019250610622565b8180600101925050610592565b6000151583151514151561069e576040517f08c379a00000000000000000000000000000000000000000000000000000000081526004018080602001828103825260158152602001807f4169726c696e6520616c726561647920766f746564000000000000000000000081525060200191505060405180910390fd5b60053390806001815401808255809150509060018203906000526020600020016000909192909190916101000a81548173ffffffffffffffffffffffffffffffffffffffff021916908373ffffffffffffffffffffffffffffffffffffffff160217905550506005805490509350600354600580549050101515610849576000809054906101000a900473ffffffffffffffffffffffffffffffffffffffff1673ffffffffffffffffffffffffffffffffffffffff1663c5dc246f888860006040518463ffffffff167c010000000000000000000000000000000000000000000000000000000002815260040180806020018315151515815260200182810382528585828181526020019250808284378201915050945050505050600060405180830381600087803b1580156107d357600080fd5b505af11580156107e7573d6000803e3d6000fd5b505050506002600081548092919060010191905055506001945060006040519080825280602002602001820160405280156108315781602001602082028038833980820191505090505b5060059080519060200190610847929190611c49565b505b5b6002805481151561085757fe5b046003819055508484945094505050509250929050565b610876611cd3565b670de0b6b3a764000034101515156108f6576040517f08c379a000000000000000000000000000000000000000000000000000000000815260040180806020018281038252601c8152602001807f526567697374726174696f6e206665652069732072657175697265640000000081525060200191505060405180910390fd5b6108ff33611749565b9050604080519081016040528060011515815260200182815250600760003373ffffffffffffffffffffffffffffffffffffffff1673ffffffffffffffffffffffffffffffffffffffff16815260200190815260200160002060008201518160000160006101000a81548160ff02191690831515021790555060208201518160010190600361098f929190611cf6565b5090505050565b61099e611cd3565b600760003373ffffffffffffffffffffffffffffffffffffffff1673ffffffffffffffffffffffffffffffffffffffff16815260200190815260200160002060000160009054906101000a900460ff161515610a62576040517f08c379a000000000000000000000000000000000000000000000000000000000815260040180806020018281038252601b8152602001807f4e6f74207265676973746572656420617320616e206f7261636c65000000000081525060200191505060405180910390fd5b600760003373ffffffffffffffffffffffffffffffffffffffff1673ffffffffffffffffffffffffffffffffffffffff168152602001908152602001600020600101600380602002604051908101604052809291908260038015610b01576020028201916000905b82829054906101000a900460ff1660ff1681526020019060010190602082600001049283019260010382029150808411610aca5790505b5050505050905090565b670de0b6b3a764000081565b610b1f611d90565b600033600115156000809054906101000a900473ffffffffffffffffffffffffffffffffffffffff1673ffffffffffffffffffffffffffffffffffffffff166368311583836040518263ffffffff167c0100000000000000000000000000000000000000000000000000000000028152600401808273ffffffffffffffffffffffffffffffffffffffff1673ffffffffffffffffffffffffffffffffffffffff168152602001915050602060405180830381600087803b158015610be257600080fd5b505af1158015610bf6573d6000803e3d6000fd5b505050506040513d6020811015610c0c57600080fd5b81019080805190602001909291905050501515141515610cba576040517f08c379a000000000000000000000000000000000000000000000000000000000815260040180806020018281038252602b8152602001807f43616e206f6e6c79206265207265676973746572656420627920616e2061637481526020017f697665206169726c696e6500000000000000000000000000000000000000000081525060400191505060405180910390fd5b8373ffffffffffffffffffffffffffffffffffffffff163373ffffffffffffffffffffffffffffffffffffffff16141515610d83576040517f08c379a00000000000000000000000000000000000000000000000000000000081526004018080602001828103825260268152602001807f596f752063616e206f6e6c7920726567697374657220796f7572206f776e206681526020017f6c6967687473000000000000000000000000000000000000000000000000000081525060400191505060405180910390fd5b608060405190810160405280600115158152602001600060ff1681526020018681526020018573ffffffffffffffffffffffffffffffffffffffff168152509250610e018488888080601f016020809104026020016040519081016040528093929190818152602001838380828437820191505050505050876118ef565b91508260046000846000191660001916815260200190815260200160002060008201518160000160006101000a81548160ff02191690831515021790555060208201518160000160016101000a81548160ff021916908360ff1602179055506040820151816001015560608201518160020160006101000a81548173ffffffffffffffffffffffffffffffffffffffff021916908373ffffffffffffffffffffffffffffffffffffffff16021790555090505050505050505050565b60008660ff16600760003373ffffffffffffffffffffffffffffffffffffffff1673ffffffffffffffffffffffffffffffffffffffff1681526020019081526020016000206001016000600381101515610f1357fe5b602091828204019190069054906101000a900460ff1660ff161480610fa257508660ff16600760003373ffffffffffffffffffffffffffffffffffffffff1673ffffffffffffffffffffffffffffffffffffffff1681526020019081526020016000206001016001600381101515610f8757fe5b602091828204019190069054906101000a900460ff1660ff16145b8061101757508660ff16600760003373ffffffffffffffffffffffffffffffffffffffff1673ffffffffffffffffffffffffffffffffffffffff1681526020019081526020016000206001016002600381101515610ffc57fe5b602091828204019190069054906101000a900460ff1660ff16145b15156110b1576040517f08c379a00000000000000000000000000000000000000000000000000000000081526004018080602001828103825260238152602001807f496e64657820646f6573206e6f74206d61746368206f7261636c65207265717581526020017f657374000000000000000000000000000000000000000000000000000000000081525060400191505060405180910390fd5b8686868686604051602001808660ff1660ff167f01000000000000000000000000000000000000000000000000000000000000000281526001018573ffffffffffffffffffffffffffffffffffffffff1673ffffffffffffffffffffffffffffffffffffffff166c010000000000000000000000000281526014018484808284378201915050828152602001955050505050506040516020818303038152906040526040518082805190602001908083835b6020831015156111885780518252602082019150602081019050602083039250611163565b6001836020036101000a0380198251168184511680821785525050505050509050019150506040518091039020905060086000826000191660001916815260200190815260200160002060000160149054906101000a900460ff16151561127d576040517f08c379a000000000000000000000000000000000000000000000000000000000815260040180806020018281038252602f8152602001807f466c69676874206f722074696d657374616d7020646f206e6f74206d6174636881526020017f206f7261636c652072657175657374000000000000000000000000000000000081525060400191505060405180910390fd5b60086000826000191660001916815260200190815260200160002060010160008360ff1660ff1681526020019081526020016000203390806001815401808255809150509060018203906000526020600020016000909192909190916101000a81548173ffffffffffffffffffffffffffffffffffffffff021916908373ffffffffffffffffffffffffffffffffffffffff160217905550507f43c853095c2752648493c88b4baac4d580d2594ffb00c6f1d4242d844514f7838686868686604051808673ffffffffffffffffffffffffffffffffffffffff1673ffffffffffffffffffffffffffffffffffffffff168152602001806020018481526020018360ff1660ff16815260200182810382528686828181526020019250808284378201915050965050505050505060405180910390a1600360086000836000191660001916815260200190815260200160002060010160008460ff1660ff168152602001908152602001600020805490501015156114cd577fe23f5229de535c091e3b7bec2665f5d698192d3b31393066e8987b7a05076b6c8686868686604051808673ffffffffffffffffffffffffffffffffffffffff1673ffffffffffffffffffffffffffffffffffffffff168152602001806020018481526020018360ff1660ff16815260200182810382528686828181526020019250808284378201915050965050505050505060405180910390a16114cc8686868080601f0160208091040260200160405190810160405280939291908181526020018383808284378201915050505050508585611a14565b5b50505050505050565b60006001905090565b6000806114eb33611ae7565b91508186868686604051602001808660ff1660ff167f01000000000000000000000000000000000000000000000000000000000000000281526001018573ffffffffffffffffffffffffffffffffffffffff1673ffffffffffffffffffffffffffffffffffffffff166c010000000000000000000000000281526014018484808284378201915050828152602001955050505050506040516020818303038152906040526040518082805190602001908083835b6020831015156115c4578051825260208201915060208101905060208303925061159f565b6001836020036101000a0380198251168184511680821785525050505050509050019150506040518091039020905060408051908101604052803373ffffffffffffffffffffffffffffffffffffffff1681526020016001151581525060086000836000191660001916815260200190815260200160002060008201518160000160006101000a81548173ffffffffffffffffffffffffffffffffffffffff021916908373ffffffffffffffffffffffffffffffffffffffff16021790555060208201518160000160146101000a81548160ff0219169083151502179055509050507f3ed01f2c3fc24c6b329d931e35b03e390d23497d22b3f90e15b600343e93df118287878787604051808660ff1660ff1681526020018573ffffffffffffffffffffffffffffffffffffffff1673ffffffffffffffffffffffffffffffffffffffff1681526020018060200183815260200182810382528585828181526020019250808284378201915050965050505050505060405180910390a1505050505050565b611751611cd3565b611759611cd3565b61176283611ae7565b81600060038110151561177157fe5b602002019060ff16908160ff168152505080600060038110151561179157fe5b60200201518160016003811015156117a557fe5b602002019060ff16908160ff16815250505b8060006003811015156117c657fe5b602002015160ff168160016003811015156117dd57fe5b602002015160ff161415611819576117f483611ae7565b81600160038110151561180357fe5b602002019060ff16908160ff16815250506117b7565b80600160038110151561182857fe5b602002015181600260038110151561183c57fe5b602002019060ff16908160ff16815250505b80600060038110151561185d57fe5b602002015160ff1681600260038110151561187457fe5b602002015160ff1614806118b3575080600160038110151561189257fe5b602002015160ff168160026003811015156118a957fe5b602002015160ff16145b156118e6576118c183611ae7565b8160026003811015156118d057fe5b602002019060ff16908160ff168152505061184e565b80915050919050565b6000838383604051602001808473ffffffffffffffffffffffffffffffffffffffff1673ffffffffffffffffffffffffffffffffffffffff166c0100000000000000000000000002815260140183805190602001908083835b60208310151561196d5780518252602082019150602081019050602083039250611948565b6001836020036101000a03801982511681845116808217855250505050505090500182815260200193505050506040516020818303038152906040526040518082805190602001908083835b6020831015156119de57805182526020820191506020810190506020830392506119b9565b6001836020036101000a038019825116818451168082178552505050505050905001915050604051809103902090509392505050565b600060148260ff161415611ae057611a2d8585856118ef565b90506000809054906101000a900473ffffffffffffffffffffffffffffffffffffffff1673ffffffffffffffffffffffffffffffffffffffff1663cc2f6eba826040518263ffffffff167c0100000000000000000000000000000000000000000000000000000000028152600401808260001916600019168152602001915050600060405180830381600087803b158015611ac757600080fd5b505af1158015611adb573d6000803e3d6000fd5b505050505b5050505050565b6000806000600a91508160ff166006600081819054906101000a900460ff168092919060010191906101000a81548160ff021916908360ff16021790555060ff16430340856040516020018083600019166000191681526020018273ffffffffffffffffffffffffffffffffffffffff1673ffffffffffffffffffffffffffffffffffffffff166c01000000000000000000000000028152601401925050506040516020818303038152906040526040518082805190602001908083835b602083101515611bca5780518252602082019150602081019050602083039250611ba5565b6001836020036101000a038019825116818451168082178552505050505050905001915050604051809103902060019004811515611c0457fe5b06905060fa600660009054906101000a900460ff1660ff161115611c3f576000600660006101000a81548160ff021916908360ff1602179055505b8092505050919050565b828054828255906000526020600020908101928215611cc2579160200282015b82811115611cc15782518260006101000a81548173ffffffffffffffffffffffffffffffffffffffff021916908373ffffffffffffffffffffffffffffffffffffffff16021790555091602001919060010190611c69565b5b509050611ccf9190611dd4565b5090565b606060405190810160405280600390602082028038833980820191505090505090565b826003601f01602090048101928215611d7f5791602002820160005b83821115611d5057835183826101000a81548160ff021916908360ff1602179055509260200192600101602081600001049283019260010302611d12565b8015611d7d5782816101000a81549060ff0219169055600101602081600001049283019260010302611d50565b505b509050611d8c9190611e17565b5090565b608060405190810160405280600015158152602001600060ff16815260200160008152602001600073ffffffffffffffffffffffffffffffffffffffff1681525090565b611e1491905b80821115611e1057600081816101000a81549073ffffffffffffffffffffffffffffffffffffffff021916905550600101611dda565b5090565b90565b611e4491905b80821115611e4057600081816101000a81549060ff021916905550600101611e1d565b5090565b905600a165627a7a7230582002a9c2390f17fabf2de9bf3648114f72a24237339f10525aaa474a0430a569680029",
  "source": "pragma solidity ^0.4.25;\n\n// It's important to avoid vulnerabilities due to numeric overflow bugs\n// OpenZeppelin's SafeMath library, when used correctly, protects agains such bugs\n// More info: https://www.nccgroup.trust/us/about-us/newsroom-and-events/blog/2018/november/smart-contract-insecurity-bad-arithmetic/\n\nimport \"../node_modules/openzeppelin-solidity/contracts/math/SafeMath.sol\";\n\n/************************************************** */\n/* FlightSurety Smart Contract                      */\n/************************************************** */\ncontract FlightSuretyApp {\n    using SafeMath for uint256; // Allow SafeMath functions to be called for all uint256 types (similar to \"prototype\" in Javascript)\n\n    /********************************************************************************************/\n    /*                                       DATA VARIABLES                                     */\n    /********************************************************************************************/\n\n    // Flight status codees\n    uint8 private constant STATUS_CODE_UNKNOWN = 0;\n    uint8 private constant STATUS_CODE_ON_TIME = 10;\n    uint8 private constant STATUS_CODE_LATE_AIRLINE = 20;\n    uint8 private constant STATUS_CODE_LATE_WEATHER = 30;\n    uint8 private constant STATUS_CODE_LATE_TECHNICAL = 40;\n    uint8 private constant STATUS_CODE_LATE_OTHER = 50;\n\n    FlightSuretyData flightSuretyData;\n    address private contractOwner;          // Account used to deploy contract\n    uint256 no_airlines = 1;\n    uint256 M = 1;\n\n    struct Flight {\n        bool isRegistered;\n        uint8 statusCode;\n        uint256 updatedTimestamp;        \n        address airline;\n    }\n    mapping(bytes32 => Flight) private flights;\n    address [] multiCallers = new address[](0);\n \n    /********************************************************************************************/\n    /*                                       FUNCTION MODIFIERS                                 */\n    /********************************************************************************************/\n\n    // Modifiers help avoid duplication of code. They are typically used to validate something\n    // before a function is allowed to be executed.\n\n    /**\n    * @dev Modifier that requires the \"operational\" boolean variable to be \"true\"\n    *      This is used on all state changing functions to pause the contract in \n    *      the event there is an issue that needs to be fixed\n    */\n    modifier requireIsOperational() \n    {\n         // Modify to call data contract's status\n        require(true, \"Contract is currently not operational\");  \n        _;  // All modifiers require an \"_\" which indicates where the function body will be added\n    }\n\n    /**\n    * @dev Modifier that requires the \"ContractOwner\" account to be the function caller\n    */\n    modifier requireContractOwner()\n    {\n        require(msg.sender == contractOwner, \"Caller is not contract owner\");\n        _;\n    }\n\n    modifier isActiveAirline(address airlineAddress)\n    {\n        require(flightSuretyData.isActiveAirline(airlineAddress)== true, \"Can only be registered by an active airline\");\n        _;\n    }\n\n    /********************************************************************************************/\n    /*                                       CONSTRUCTOR                                        */\n    /********************************************************************************************/\n\n    /**\n    * @dev Contract constructor\n    *\n    */\n    constructor\n                                (\n                                    address dataContract\n                                ) \n                                public \n    {\n        contractOwner = msg.sender;\n        flightSuretyData = FlightSuretyData(dataContract);\n\n        flightSuretyData.registerAirline(\"Egypt air\", true);\n    }\n\n    /********************************************************************************************/\n    /*                                       UTILITY FUNCTIONS                                  */\n    /********************************************************************************************/\n\n    function isOperational() \n                            public \n                            pure \n                            returns(bool) \n    {\n        return true;  // Modify to call data contract's status\n    }\n\n    /********************************************************************************************/\n    /*                                     SMART CONTRACT FUNCTIONS                             */\n    /********************************************************************************************/\n\n  \n   /**\n    * @dev Add an airline to the registration queue\n    *\n    */   \n    function registerAirline\n                            (\n                                string name   \n                            )\n                            external\n                            isActiveAirline(msg.sender)\n                            returns(bool success, uint256 votes)\n                                    \n    {\n        votes = 0;\n        success = false;\n        if(no_airlines<4){\n            flightSuretyData.registerAirline(name,false);\n            no_airlines++;\n            success = true;\n        }else{\n            bool isDuplicate = false;\n            for (uint256 c = 0; c<multiCallers.length;c++){\n                if(multiCallers[c]==msg.sender){\n                    isDuplicate = true;\n                    break;\n                }\n            }\n            require(isDuplicate==false, \"Airline already voted\");\n            multiCallers.push(msg.sender);\n            votes = multiCallers.length;\n            if(multiCallers.length>=M){\n                flightSuretyData.registerAirline(name, false);\n                no_airlines++;\n                success = true;\n                multiCallers = new address[](0);\n            }\n        }\n\n        M = no_airlines/2;\n        return (success, votes);\n    }\n\n\n   /**\n    * @dev Register a future flight for insuring.\n    *\n    */  \n    function registerFlight\n                                (\n                                    //bool isRegistered;\n                                    //uint8 statusCode;\n                                    string flightName,\n                                    uint256 updatedTimestamp,        \n                                    address airline\n                                )\n                                external\n                                isActiveAirline(msg.sender)\n    {\n        require(msg.sender == airline, \"You can only register your own flights\");\n        Flight memory flight = Flight(true, 0, updatedTimestamp, airline);\n        bytes32 key = getFlightKey(airline, flightName, updatedTimestamp);\n        flights[key] = flight;\n    }\n    \n   /**\n    * @dev Called after oracle has updated flight status\n    *\n    */  \n    function processFlightStatus\n                                (\n                                    address airline,\n                                    string memory flight,\n                                    uint256 timestamp,\n                                    uint8 statusCode\n                                )\n                                internal\n    {\n        if(statusCode==20){\n            bytes32 key = getFlightKey(airline, flight, timestamp);\n            flightSuretyData.creditInsurees(key);\n        }\n    }\n\n\n    // Generate a request for oracles to fetch flight information\n    function fetchFlightStatus\n                        (\n                            address airline,\n                            string flight,\n                            uint256 timestamp                            \n                        )\n                        external\n    {\n        uint8 index = getRandomIndex(msg.sender);\n\n        // Generate a unique key for storing the request\n        bytes32 key = keccak256(abi.encodePacked(index, airline, flight, timestamp));\n        oracleResponses[key] = ResponseInfo({\n                                                requester: msg.sender,\n                                                isOpen: true\n                                            });\n\n        emit OracleRequest(index, airline, flight, timestamp);\n    } \n\n\n// region ORACLE MANAGEMENT\n\n    // Incremented to add pseudo-randomness at various points\n    uint8 private nonce = 0;    \n\n    // Fee to be paid when registering oracle\n    uint256 public constant REGISTRATION_FEE = 1 ether;\n\n    // Number of oracles that must respond for valid status\n    uint256 private constant MIN_RESPONSES = 3;\n\n\n    struct Oracle {\n        bool isRegistered;\n        uint8[3] indexes;        \n    }\n\n    // Track all registered oracles\n    mapping(address => Oracle) private oracles;\n\n    // Model for responses from oracles\n    struct ResponseInfo {\n        address requester;                              // Account that requested status\n        bool isOpen;                                    // If open, oracle responses are accepted\n        mapping(uint8 => address[]) responses;          // Mapping key is the status code reported\n                                                        // This lets us group responses and identify\n                                                        // the response that majority of the oracles\n    }\n\n    // Track all oracle responses\n    // Key = hash(index, flight, timestamp)\n    mapping(bytes32 => ResponseInfo) private oracleResponses;\n\n    // Event fired each time an oracle submits a response\n    event FlightStatusInfo(address airline, string flight, uint256 timestamp, uint8 status);\n\n    event OracleReport(address airline, string flight, uint256 timestamp, uint8 status);\n\n    // Event fired when flight status request is submitted\n    // Oracles track this and if they have a matching index\n    // they fetch data and submit a response\n    event OracleRequest(uint8 index, address airline, string flight, uint256 timestamp);\n\n\n    // Register an oracle with the contract\n    function registerOracle\n                            (\n                            )\n                            external\n                            payable\n    {\n        // Require registration fee\n        require(msg.value >= REGISTRATION_FEE, \"Registration fee is required\");\n\n        uint8[3] memory indexes = generateIndexes(msg.sender);\n\n        oracles[msg.sender] = Oracle({\n                                        isRegistered: true,\n                                        indexes: indexes\n                                    });\n    }\n\n    function getMyIndexes\n                            (\n                            )\n                            view\n                            external\n                            returns(uint8[3])\n    {\n        require(oracles[msg.sender].isRegistered, \"Not registered as an oracle\");\n\n        return oracles[msg.sender].indexes;\n    }\n\n\n\n\n    // Called by oracle when a response is available to an outstanding request\n    // For the response to be accepted, there must be a pending request that is open\n    // and matches one of the three Indexes randomly assigned to the oracle at the\n    // time of registration (i.e. uninvited oracles are not welcome)\n    function submitOracleResponse\n                        (\n                            uint8 index,\n                            address airline,\n                            string flight,\n                            uint256 timestamp,\n                            uint8 statusCode\n                        )\n                        external\n    {\n        require((oracles[msg.sender].indexes[0] == index) || (oracles[msg.sender].indexes[1] == index) || (oracles[msg.sender].indexes[2] == index), \"Index does not match oracle request\");\n\n\n        bytes32 key = keccak256(abi.encodePacked(index, airline, flight, timestamp)); \n        require(oracleResponses[key].isOpen, \"Flight or timestamp do not match oracle request\");\n\n        oracleResponses[key].responses[statusCode].push(msg.sender);\n\n        // Information isn't considered verified until at least MIN_RESPONSES\n        // oracles respond with the *** same *** information\n        emit OracleReport(airline, flight, timestamp, statusCode);\n        if (oracleResponses[key].responses[statusCode].length >= MIN_RESPONSES) {\n\n            emit FlightStatusInfo(airline, flight, timestamp, statusCode);\n\n            // Handle flight status as appropriate\n            processFlightStatus(airline, flight, timestamp, statusCode);\n        }\n    }\n\n\n    function getFlightKey\n                        (\n                            address airline,\n                            string flight,\n                            uint256 timestamp\n                        )\n                        pure\n                        internal\n                        returns(bytes32) \n    {\n        return keccak256(abi.encodePacked(airline, flight, timestamp));\n    }\n\n    // Returns array of three non-duplicating integers from 0-9\n    function generateIndexes\n                            (                       \n                                address account         \n                            )\n                            internal\n                            returns(uint8[3])\n    {\n        uint8[3] memory indexes;\n        indexes[0] = getRandomIndex(account);\n        \n        indexes[1] = indexes[0];\n        while(indexes[1] == indexes[0]) {\n            indexes[1] = getRandomIndex(account);\n        }\n\n        indexes[2] = indexes[1];\n        while((indexes[2] == indexes[0]) || (indexes[2] == indexes[1])) {\n            indexes[2] = getRandomIndex(account);\n        }\n\n        return indexes;\n    }\n\n    // Returns array of three non-duplicating integers from 0-9\n    function getRandomIndex\n                            (\n                                address account\n                            )\n                            internal\n                            returns (uint8)\n    {\n        uint8 maxValue = 10;\n\n        // Pseudo random number...the incrementing nonce adds variation\n        uint8 random = uint8(uint256(keccak256(abi.encodePacked(blockhash(block.number - nonce++), account))) % maxValue);\n\n        if (nonce > 250) {\n            nonce = 0;  // Can only fetch blockhashes for last 256 blocks so we adapt\n        }\n\n        return random;\n    }\n\n// endregion\n\n}   \n\ncontract FlightSuretyData {\n    function registerAirline(string name, bool activated) external;\n    function isActiveAirline(address airlineAddress) external returns(bool);\n        function creditInsurees(bytes32 key) external;\n}",
  "sourcePath": "/home/e11i0t/FlightSurety/contracts/FlightSuretyApp.sol",
  "compiler": {
    "name": "solc",
    "version": "0.4.26+commit.4563c3fc.Emscripten.clang"
  },
  "schemaVersion": "2.0.3",
  "updatedAt": "2021-04-20T11:46:04.977Z"
}