{
  "contractName": "FlightSuretyData",
  "abi": [
    {
      "constant": true,
      "inputs": [],
      "name": "registeredCount",
      "outputs": [
        {
          "name": "",
          "type": "uint256"
        }
      ],
      "payable": false,
      "stateMutability": "view",
      "type": "function"
    },
    {
      "constant": true,
      "inputs": [],
      "name": "AirlineRegistrationFee",
      "outputs": [
        {
          "name": "",
          "type": "uint256"
        }
      ],
      "payable": false,
      "stateMutability": "view",
      "type": "function"
    },
    {
      "inputs": [],
      "payable": false,
      "stateMutability": "nonpayable",
      "type": "constructor"
    },
    {
      "payable": true,
      "stateMutability": "payable",
      "type": "fallback"
    },
    {
      "constant": true,
      "inputs": [
        {
          "name": "_address",
          "type": "address"
        }
      ],
      "name": "hasPaid",
      "outputs": [
        {
          "name": "",
          "type": "bool"
        }
      ],
      "payable": false,
      "stateMutability": "view",
      "type": "function"
    },
    {
      "constant": false,
      "inputs": [],
      "name": "changeOperation",
      "outputs": [],
      "payable": false,
      "stateMutability": "nonpayable",
      "type": "function"
    },
    {
      "constant": true,
      "inputs": [],
      "name": "isOperational",
      "outputs": [
        {
          "name": "",
          "type": "bool"
        }
      ],
      "payable": false,
      "stateMutability": "view",
      "type": "function"
    },
    {
      "constant": false,
      "inputs": [
        {
          "name": "addressToAuthorize",
          "type": "address"
        }
      ],
      "name": "authorizeCaller",
      "outputs": [],
      "payable": false,
      "stateMutability": "nonpayable",
      "type": "function"
    },
    {
      "constant": true,
      "inputs": [
        {
          "name": "addressToPromote",
          "type": "address"
        },
        {
          "name": "promoter",
          "type": "address"
        }
      ],
      "name": "hasAlreadyVoted",
      "outputs": [
        {
          "name": "",
          "type": "bool"
        }
      ],
      "payable": false,
      "stateMutability": "view",
      "type": "function"
    },
    {
      "constant": true,
      "inputs": [],
      "name": "getRegistrationCount",
      "outputs": [
        {
          "name": "",
          "type": "uint256"
        }
      ],
      "payable": false,
      "stateMutability": "view",
      "type": "function"
    },
    {
      "constant": true,
      "inputs": [
        {
          "name": "addressToCheck",
          "type": "address"
        }
      ],
      "name": "isRegisterAirline",
      "outputs": [
        {
          "name": "registered",
          "type": "bool"
        },
        {
          "name": "paid",
          "type": "bool"
        },
        {
          "name": "votes",
          "type": "uint256"
        }
      ],
      "payable": false,
      "stateMutability": "view",
      "type": "function"
    },
    {
      "constant": true,
      "inputs": [
        {
          "name": "key",
          "type": "bytes32"
        },
        {
          "name": "_address",
          "type": "address"
        }
      ],
      "name": "isInsured",
      "outputs": [
        {
          "name": "",
          "type": "bool"
        }
      ],
      "payable": false,
      "stateMutability": "view",
      "type": "function"
    },
    {
      "constant": true,
      "inputs": [
        {
          "name": "key",
          "type": "bytes32"
        }
      ],
      "name": "getTicketPriceWithInsurance",
      "outputs": [
        {
          "name": "ticketPrice",
          "type": "uint256"
        },
        {
          "name": "ticketPriceWithInsurance",
          "type": "uint256"
        }
      ],
      "payable": false,
      "stateMutability": "view",
      "type": "function"
    },
    {
      "constant": true,
      "inputs": [
        {
          "name": "key",
          "type": "bytes32"
        }
      ],
      "name": "getFlight",
      "outputs": [
        {
          "name": "exist",
          "type": "bool"
        },
        {
          "name": "status",
          "type": "uint256"
        },
        {
          "name": "registered",
          "type": "bool"
        },
        {
          "name": "departuretime",
          "type": "uint256"
        },
        {
          "name": "price",
          "type": "uint256"
        }
      ],
      "payable": false,
      "stateMutability": "view",
      "type": "function"
    },
    {
      "constant": false,
      "inputs": [
        {
          "name": "key",
          "type": "bytes32"
        },
        {
          "name": "status",
          "type": "uint256"
        }
      ],
      "name": "updateFlightStatus",
      "outputs": [],
      "payable": false,
      "stateMutability": "nonpayable",
      "type": "function"
    },
    {
      "constant": true,
      "inputs": [],
      "name": "getCurrentConsieses",
      "outputs": [
        {
          "name": "",
          "type": "uint256"
        }
      ],
      "payable": false,
      "stateMutability": "view",
      "type": "function"
    },
    {
      "constant": false,
      "inputs": [
        {
          "name": "addressToRegister",
          "type": "address"
        },
        {
          "name": "registrationState",
          "type": "bool"
        }
      ],
      "name": "changeRegisteration",
      "outputs": [],
      "payable": false,
      "stateMutability": "nonpayable",
      "type": "function"
    },
    {
      "constant": false,
      "inputs": [
        {
          "name": "addressToPromote",
          "type": "address"
        },
        {
          "name": "promoter",
          "type": "address"
        }
      ],
      "name": "addVote",
      "outputs": [],
      "payable": false,
      "stateMutability": "nonpayable",
      "type": "function"
    },
    {
      "constant": false,
      "inputs": [
        {
          "name": "addressThatPaid",
          "type": "address"
        }
      ],
      "name": "payFee",
      "outputs": [],
      "payable": true,
      "stateMutability": "payable",
      "type": "function"
    },
    {
      "constant": false,
      "inputs": [
        {
          "name": "key",
          "type": "bytes32"
        },
        {
          "name": "price",
          "type": "uint256"
        },
        {
          "name": "time",
          "type": "uint256"
        }
      ],
      "name": "addRegisteredFlight",
      "outputs": [],
      "payable": false,
      "stateMutability": "nonpayable",
      "type": "function"
    },
    {
      "constant": false,
      "inputs": [
        {
          "name": "key",
          "type": "bytes32"
        },
        {
          "name": "buyer",
          "type": "address"
        },
        {
          "name": "withInsurance",
          "type": "bool"
        }
      ],
      "name": "buy",
      "outputs": [],
      "payable": true,
      "stateMutability": "payable",
      "type": "function"
    },
    {
      "constant": true,
      "inputs": [
        {
          "name": "_address",
          "type": "address"
        }
      ],
      "name": "creditInsurees",
      "outputs": [
        {
          "name": "",
          "type": "uint256"
        }
      ],
      "payable": false,
      "stateMutability": "view",
      "type": "function"
    },
    {
      "constant": false,
      "inputs": [
        {
          "name": "_address",
          "type": "address"
        }
      ],
      "name": "pay",
      "outputs": [],
      "payable": false,
      "stateMutability": "nonpayable",
      "type": "function"
    },
    {
      "constant": false,
      "inputs": [
        {
          "name": "key",
          "type": "bytes32"
        },
        {
          "name": "_address",
          "type": "address"
        }
      ],
      "name": "fund",
      "outputs": [],
      "payable": false,
      "stateMutability": "nonpayable",
      "type": "function"
    }
  ],
  "bytecode": "0x60806040526001600060146101000a81548160ff02191690831515021790555060006001553480156200003157600080fd5b506200003c62000185565b336000806101000a81548173ffffffffffffffffffffffffffffffffffffffff021916908373ffffffffffffffffffffffffffffffffffffffff16021790555060018160000190151590811515815250506001816020019015159081151581525050600081604001818152505080600560003373ffffffffffffffffffffffffffffffffffffffff1673ffffffffffffffffffffffffffffffffffffffff16815260200190815260200160002060008201518160000160006101000a81548160ff02191690831515021790555060208201518160000160016101000a81548160ff021916908315150217905550604082015181600201559050506200015b60018054620001686401000000000262003531179091906401000000009004565b60018190555050620001ab565b600081830190508281101515156200017c57fe5b80905092915050565b606060405190810160405280600015158152602001600015158152602001600081525090565b6135e980620001bb6000396000f300608060405260043610610127576000357c0100000000000000000000000000000000000000000000000000000000900463ffffffff1680620f8e0e146101295780630c11dedd1461016e578063210ff9bb146101b15780632c388d5d146101dc5780633d09c2a81461021f5780634653a1b2146102825780634a830a92146102d25780634ae02b15146103295780634bc482571461037557806359bfaee11461038c5780636f5a955b146103b757806376a563b5146103ed5780639a5a276f14610418578063b0cd517c14610469578063b54cd451146104b8578063b9bcd121146104f3578063cac8f2921461051e578063cd4ccfdb14610587578063cd905dff146105f4578063ee8bd1d014610623578063ef3b80b41461068c578063fbf47a9a14610707575b005b34801561013557600080fd5b5061016c60048036038101908080356000191690602001909291908035906020019092919080359060200190929190505050610762565b005b34801561017a57600080fd5b506101af600480360381019080803573ffffffffffffffffffffffffffffffffffffffff1690602001909291905050506109cd565b005b3480156101bd57600080fd5b506101c6610daf565b6040518082815260200191505060405180910390f35b3480156101e857600080fd5b5061021d600480360381019080803573ffffffffffffffffffffffffffffffffffffffff169060200190929190505050610db5565b005b34801561022b57600080fd5b50610280600480360381019080803573ffffffffffffffffffffffffffffffffffffffff169060200190929190803573ffffffffffffffffffffffffffffffffffffffff169060200190929190505050610ed4565b005b6102d06004803603810190808035600019169060200190929190803573ffffffffffffffffffffffffffffffffffffffff1690602001909291908035151590602001909291905050506111ab565b005b3480156102de57600080fd5b50610313600480360381019080803573ffffffffffffffffffffffffffffffffffffffff169060200190929190505050611646565b6040518082815260200191505060405180910390f35b34801561033557600080fd5b50610358600480360381019080803560001916906020019092919050505061182e565b604051808381526020018281526020019250505060405180910390f35b34801561038157600080fd5b5061038a611ae0565b005b34801561039857600080fd5b506103a1611bfd565b6040518082815260200191505060405180910390f35b6103eb600480360381019080803573ffffffffffffffffffffffffffffffffffffffff169060200190929190505050611da6565b005b3480156103f957600080fd5b50610402611fa3565b6040518082815260200191505060405180910390f35b34801561042457600080fd5b506104676004803603810190808035600019169060200190929190803573ffffffffffffffffffffffffffffffffffffffff169060200190929190505050612164565b005b34801561047557600080fd5b506104b6600480360381019080803573ffffffffffffffffffffffffffffffffffffffff1690602001909291908035151590602001909291905050506126e4565b005b3480156104c457600080fd5b506104f16004803603810190808035600019169060200190929190803590602001909291905050506128fc565b005b3480156104ff57600080fd5b50610508612b6b565b6040518082815260200191505060405180910390f35b34801561052a57600080fd5b5061054d6004803603810190808035600019169060200190929190505050612b77565b6040518086151515158152602001858152602001841515151581526020018381526020018281526020019550505050505060405180910390f35b34801561059357600080fd5b506105c8600480360381019080803573ffffffffffffffffffffffffffffffffffffffff169060200190929190505050612d35565b604051808415151515815260200183151515158152602001828152602001935050505060405180910390f35b34801561060057600080fd5b50610609612f8b565b604051808215151515815260200191505060405180910390f35b34801561062f57600080fd5b506106726004803603810190808035600019169060200190929190803573ffffffffffffffffffffffffffffffffffffffff169060200190929190505050613090565b604051808215151515815260200191505060405180910390f35b34801561069857600080fd5b506106ed600480360381019080803573ffffffffffffffffffffffffffffffffffffffff169060200190929190803573ffffffffffffffffffffffffffffffffffffffff169060200190929190505050613103565b604051808215151515815260200191505060405180910390f35b34801561071357600080fd5b50610748600480360381019080803573ffffffffffffffffffffffffffffffffffffffff169060200190929190505050613339565b604051808215151515815260200191505060405180910390f35b61076a613563565b60011515600060149054906101000a900460ff16151514151561081b576040517f08c379a00000000000000000000000000000000000000000000000000000000081526004018080602001828103825260258152602001807f436f6e74726163742069732063757272656e746c79206e6f74206f706572617481526020017f696f6e616c00000000000000000000000000000000000000000000000000000081525060400191505060405180910390fd5b60011515600360003373ffffffffffffffffffffffffffffffffffffffff1673ffffffffffffffffffffffffffffffffffffffff16815260200190815260200160002060009054906101000a900460ff161515141515610909576040517f08c379a00000000000000000000000000000000000000000000000000000000081526004018080602001828103825260398152602001807f41646472657373206973206e6f7420617574686f72697a656420746f206d616b81526020017f652063616c6c6573206f6e206461746120636f6e74726163740000000000000081525060400191505060405180910390fd5b6001816000019015159081151581525050600a816020018181525050600181604001901515908115158152505082816080018181525050818160600181815250508060046000866000191660001916815260200190815260200160002060008201518160000160006101000a81548160ff0219169083151502179055506020820151816001015560408201518160020160006101000a81548160ff021916908315150217905550606082015181600301556080820151816004015590505050505050565b60011515600060149054906101000a900460ff161515141515610a7e576040517f08c379a00000000000000000000000000000000000000000000000000000000081526004018080602001828103825260258152602001807f436f6e74726163742069732063757272656e746c79206e6f74206f706572617481526020017f696f6e616c00000000000000000000000000000000000000000000000000000081525060400191505060405180910390fd5b60011515600360003373ffffffffffffffffffffffffffffffffffffffff1673ffffffffffffffffffffffffffffffffffffffff16815260200190815260200160002060009054906101000a900460ff161515141515610b6c576040517f08c379a00000000000000000000000000000000000000000000000000000000081526004018080602001828103825260398152602001807f41646472657373206973206e6f7420617574686f72697a656420746f206d616b81526020017f652063616c6c6573206f6e206461746120636f6e74726163740000000000000081525060400191505060405180910390fd5b806000600260008373ffffffffffffffffffffffffffffffffffffffff1673ffffffffffffffffffffffffffffffffffffffff16815260200190815260200160002054111515610c24576040517f08c379a00000000000000000000000000000000000000000000000000000000081526004018080602001828103825260158152602001807f4164647265737320686173206e6f20637265646974000000000000000000000081525060200191505060405180910390fd5b678ac7230489e800003073ffffffffffffffffffffffffffffffffffffffff1631111515610ce0576040517f08c379a000000000000000000000000000000000000000000000000000000000815260040180806020018281038252602c8152602001807f436f6e74726163742068617320696e73756666696369656e742066756e64732081526020017f666f72207769746864726177000000000000000000000000000000000000000081525060400191505060405180910390fd5b8173ffffffffffffffffffffffffffffffffffffffff166108fc600260008573ffffffffffffffffffffffffffffffffffffffff1673ffffffffffffffffffffffffffffffffffffffff168152602001908152602001600020549081150290604051600060405180830381858888f19350505050158015610d65573d6000803e3d6000fd5b506000600260008473ffffffffffffffffffffffffffffffffffffffff1673ffffffffffffffffffffffffffffffffffffffff168152602001908152602001600020819055505050565b60015481565b6000809054906101000a900473ffffffffffffffffffffffffffffffffffffffff1673ffffffffffffffffffffffffffffffffffffffff163373ffffffffffffffffffffffffffffffffffffffff16141515610e79576040517f08c379a000000000000000000000000000000000000000000000000000000000815260040180806020018281038252601c8152602001807f43616c6c6572206973206e6f7420636f6e7472616374206f776e65720000000081525060200191505060405180910390fd5b6001600360008373ffffffffffffffffffffffffffffffffffffffff1673ffffffffffffffffffffffffffffffffffffffff16815260200190815260200160002060006101000a81548160ff02191690831515021790555050565b60011515600060149054906101000a900460ff161515141515610f85576040517f08c379a00000000000000000000000000000000000000000000000000000000081526004018080602001828103825260258152602001807f436f6e74726163742069732063757272656e746c79206e6f74206f706572617481526020017f696f6e616c00000000000000000000000000000000000000000000000000000081525060400191505060405180910390fd5b60011515600360003373ffffffffffffffffffffffffffffffffffffffff1673ffffffffffffffffffffffffffffffffffffffff16815260200190815260200160002060009054906101000a900460ff161515141515611073576040517f08c379a00000000000000000000000000000000000000000000000000000000081526004018080602001828103825260398152602001807f41646472657373206973206e6f7420617574686f72697a656420746f206d616b81526020017f652063616c6c6573206f6e206461746120636f6e74726163740000000000000081525060400191505060405180910390fd5b6001600560008473ffffffffffffffffffffffffffffffffffffffff1673ffffffffffffffffffffffffffffffffffffffff16815260200190815260200160002060010160008373ffffffffffffffffffffffffffffffffffffffff1673ffffffffffffffffffffffffffffffffffffffff16815260200190815260200160002060006101000a81548160ff0219169083151502179055506111616001600560008573ffffffffffffffffffffffffffffffffffffffff1673ffffffffffffffffffffffffffffffffffffffff1681526020019081526020016000206002015461353190919063ffffffff16565b600560008473ffffffffffffffffffffffffffffffffffffffff1673ffffffffffffffffffffffffffffffffffffffff168152602001908152602001600020600201819055505050565b60011515600060149054906101000a900460ff16151514151561125c576040517f08c379a00000000000000000000000000000000000000000000000000000000081526004018080602001828103825260258152602001807f436f6e74726163742069732063757272656e746c79206e6f74206f706572617481526020017f696f6e616c00000000000000000000000000000000000000000000000000000081525060400191505060405180910390fd5b60011515600360003373ffffffffffffffffffffffffffffffffffffffff1673ffffffffffffffffffffffffffffffffffffffff16815260200190815260200160002060009054906101000a900460ff16151514151561134a576040517f08c379a00000000000000000000000000000000000000000000000000000000081526004018080602001828103825260398152602001807f41646472657373206973206e6f7420617574686f72697a656420746f206d616b81526020017f652063616c6c6573206f6e206461746120636f6e74726163740000000000000081525060400191505060405180910390fd5b82826000151560046000846000191660001916815260200190815260200160002060050160008373ffffffffffffffffffffffffffffffffffffffff1673ffffffffffffffffffffffffffffffffffffffff16815260200190815260200160002060009054906101000a900460ff161515141515611456576040517f08c379a000000000000000000000000000000000000000000000000000000000815260040180806020018281038252602d8152602001807f4164647265737320616c72656164792068617320696e737572616e636520666f81526020017f72207468697320666c696768740000000000000000000000000000000000000081525060400191505060405180910390fd5b846001151560046000836000191660001916815260200190815260200160002060000160009054906101000a900460ff1615151415156114fe576040517f08c379a00000000000000000000000000000000000000000000000000000000081526004018080602001828103825260148152602001807f466c6967687420446f65736e277420657869737400000000000000000000000081525060200191505060405180910390fd5b854260046000836000191660001916815260200190815260200160002060030154101515156115bb576040517f08c379a00000000000000000000000000000000000000000000000000000000081526004018080602001828103825260298152602001807f546f6f206c61746520746f2062757920696e737572616e636520666f7220746881526020017f697320666c69676874000000000000000000000000000000000000000000000081525060400191505060405180910390fd5b60011515851515141561163d57600160046000896000191660001916815260200190815260200160002060050160008873ffffffffffffffffffffffffffffffffffffffff1673ffffffffffffffffffffffffffffffffffffffff16815260200190815260200160002060006101000a81548160ff0219169083151502179055505b50505050505050565b600060011515600060149054906101000a900460ff1615151415156116f9576040517f08c379a00000000000000000000000000000000000000000000000000000000081526004018080602001828103825260258152602001807f436f6e74726163742069732063757272656e746c79206e6f74206f706572617481526020017f696f6e616c00000000000000000000000000000000000000000000000000000081525060400191505060405180910390fd5b60011515600360003373ffffffffffffffffffffffffffffffffffffffff1673ffffffffffffffffffffffffffffffffffffffff16815260200190815260200160002060009054906101000a900460ff1615151415156117e7576040517f08c379a00000000000000000000000000000000000000000000000000000000081526004018080602001828103825260398152602001807f41646472657373206973206e6f7420617574686f72697a656420746f206d616b81526020017f652063616c6c6573206f6e206461746120636f6e74726163740000000000000081525060400191505060405180910390fd5b600260008373ffffffffffffffffffffffffffffffffffffffff1673ffffffffffffffffffffffffffffffffffffffff168152602001908152602001600020549050919050565b600080600060011515600060149054906101000a900460ff1615151415156118e4576040517f08c379a00000000000000000000000000000000000000000000000000000000081526004018080602001828103825260258152602001807f436f6e74726163742069732063757272656e746c79206e6f74206f706572617481526020017f696f6e616c00000000000000000000000000000000000000000000000000000081525060400191505060405180910390fd5b60011515600360003373ffffffffffffffffffffffffffffffffffffffff1673ffffffffffffffffffffffffffffffffffffffff16815260200190815260200160002060009054906101000a900460ff1615151415156119d2576040517f08c379a00000000000000000000000000000000000000000000000000000000081526004018080602001828103825260398152602001807f41646472657373206973206e6f7420617574686f72697a656420746f206d616b81526020017f652063616c6c6573206f6e206461746120636f6e74726163740000000000000081525060400191505060405180910390fd5b836001151560046000836000191660001916815260200190815260200160002060000160009054906101000a900460ff161515141515611a7a576040517f08c379a00000000000000000000000000000000000000000000000000000000081526004018080602001828103825260148152602001807f466c6967687420446f65736e277420657869737400000000000000000000000081525060200191505060405180910390fd5b611ab3678ac7230489e800006004600088600019166000191681526020019081526020016000206004015461353190919063ffffffff16565b91506004600086600019166000191681526020019081526020016000206004015482935093505050915091565b6000809054906101000a900473ffffffffffffffffffffffffffffffffffffffff1673ffffffffffffffffffffffffffffffffffffffff163373ffffffffffffffffffffffffffffffffffffffff16141515611ba4576040517f08c379a000000000000000000000000000000000000000000000000000000000815260040180806020018281038252601c8152602001807f43616c6c6572206973206e6f7420636f6e7472616374206f776e65720000000081525060200191505060405180910390fd5b60011515600060149054906101000a900460ff1615151415611bdf5760008060146101000a81548160ff021916908315150217905550611bfb565b6001600060146101000a81548160ff0219169083151502179055505b565b600060011515600060149054906101000a900460ff161515141515611cb0576040517f08c379a00000000000000000000000000000000000000000000000000000000081526004018080602001828103825260258152602001807f436f6e74726163742069732063757272656e746c79206e6f74206f706572617481526020017f696f6e616c00000000000000000000000000000000000000000000000000000081525060400191505060405180910390fd5b60011515600360003373ffffffffffffffffffffffffffffffffffffffff1673ffffffffffffffffffffffffffffffffffffffff16815260200190815260200160002060009054906101000a900460ff161515141515611d9e576040517f08c379a00000000000000000000000000000000000000000000000000000000081526004018080602001828103825260398152602001807f41646472657373206973206e6f7420617574686f72697a656420746f206d616b81526020017f652063616c6c6573206f6e206461746120636f6e74726163740000000000000081525060400191505060405180910390fd5b600154905090565b60011515600060149054906101000a900460ff161515141515611e57576040517f08c379a00000000000000000000000000000000000000000000000000000000081526004018080602001828103825260258152602001807f436f6e74726163742069732063757272656e746c79206e6f74206f706572617481526020017f696f6e616c00000000000000000000000000000000000000000000000000000081525060400191505060405180910390fd5b60011515600360003373ffffffffffffffffffffffffffffffffffffffff1673ffffffffffffffffffffffffffffffffffffffff16815260200190815260200160002060009054906101000a900460ff161515141515611f45576040517f08c379a00000000000000000000000000000000000000000000000000000000081526004018080602001828103825260398152602001807f41646472657373206973206e6f7420617574686f72697a656420746f206d616b81526020017f652063616c6c6573206f6e206461746120636f6e74726163740000000000000081525060400191505060405180910390fd5b6001600560008373ffffffffffffffffffffffffffffffffffffffff1673ffffffffffffffffffffffffffffffffffffffff16815260200190815260200160002060000160016101000a81548160ff02191690831515021790555050565b60008060011515600060149054906101000a900460ff161515141515612057576040517f08c379a00000000000000000000000000000000000000000000000000000000081526004018080602001828103825260258152602001807f436f6e74726163742069732063757272656e746c79206e6f74206f706572617481526020017f696f6e616c00000000000000000000000000000000000000000000000000000081525060400191505060405180910390fd5b60011515600360003373ffffffffffffffffffffffffffffffffffffffff1673ffffffffffffffffffffffffffffffffffffffff16815260200190815260200160002060009054906101000a900460ff161515141515612145576040517f08c379a00000000000000000000000000000000000000000000000000000000081526004018080602001828103825260398152602001807f41646472657373206973206e6f7420617574686f72697a656420746f206d616b81526020017f652063616c6c6573206f6e206461746120636f6e74726163740000000000000081525060400191505060405180910390fd5b61215b600260015461354d90919063ffffffff16565b90508091505090565b60008060011515600060149054906101000a900460ff161515141515612218576040517f08c379a00000000000000000000000000000000000000000000000000000000081526004018080602001828103825260258152602001807f436f6e74726163742069732063757272656e746c79206e6f74206f706572617481526020017f696f6e616c00000000000000000000000000000000000000000000000000000081525060400191505060405180910390fd5b60011515600360003373ffffffffffffffffffffffffffffffffffffffff1673ffffffffffffffffffffffffffffffffffffffff16815260200190815260200160002060009054906101000a900460ff161515141515612306576040517f08c379a00000000000000000000000000000000000000000000000000000000081526004018080602001828103825260398152602001807f41646472657373206973206e6f7420617574686f72697a656420746f206d616b81526020017f652063616c6c6573206f6e206461746120636f6e74726163740000000000000081525060400191505060405180910390fd5b8342600460008360001916600019168152602001908152602001600020600301541015156123c2576040517f08c379a00000000000000000000000000000000000000000000000000000000081526004018080602001828103825260388152602001807f466c69676874206d75737420626520706173736564206465706174757265206481526020017f61746120666f7220696e737572616e6365207061796f7574000000000000000081525060400191505060405180910390fd5b84846001151560046000846000191660001916815260200190815260200160002060050160008373ffffffffffffffffffffffffffffffffffffffff1673ffffffffffffffffffffffffffffffffffffffff16815260200190815260200160002060009054906101000a900460ff1615151415156124f4576040517f08c379a00000000000000000000000000000000000000000000000000000000081526004018080602001828103825260428152602001807f41646472657373206973206e6f7420696e737572616e636564206f722077617381526020017f2020616c726561647920726566756e64656420666f72207468697320666c696781526020017f687400000000000000000000000000000000000000000000000000000000000081525060600191505060405180910390fd5b86600a60046000836000191660001916815260200190815260200160002060010154141515156125b2576040517f08c379a00000000000000000000000000000000000000000000000000000000081526004018080602001828103825260278152602001807f466c6967687420776173206f6e2074696d65206e6f20696e737572616e63652081526020017f666f7220796f750000000000000000000000000000000000000000000000000081525060400191505060405180910390fd5b6000600460008a6000191660001916815260200190815260200160002060050160008973ffffffffffffffffffffffffffffffffffffffff1673ffffffffffffffffffffffffffffffffffffffff16815260200190815260200160002060006101000a81548160ff0219169083151502179055506126586002600460008b600019166000191681526020019081526020016000206004015461354d90919063ffffffff16565b955061268b86600460008b600019166000191681526020019081526020016000206004015461353190919063ffffffff16565b945084600260008973ffffffffffffffffffffffffffffffffffffffff1673ffffffffffffffffffffffffffffffffffffffff168152602001908152602001600020600082825401925050819055505050505050505050565b60011515600060149054906101000a900460ff161515141515612795576040517f08c379a00000000000000000000000000000000000000000000000000000000081526004018080602001828103825260258152602001807f436f6e74726163742069732063757272656e746c79206e6f74206f706572617481526020017f696f6e616c00000000000000000000000000000000000000000000000000000081525060400191505060405180910390fd5b60011515600360003373ffffffffffffffffffffffffffffffffffffffff1673ffffffffffffffffffffffffffffffffffffffff16815260200190815260200160002060009054906101000a900460ff161515141515612883576040517f08c379a00000000000000000000000000000000000000000000000000000000081526004018080602001828103825260398152602001807f41646472657373206973206e6f7420617574686f72697a656420746f206d616b81526020017f652063616c6c6573206f6e206461746120636f6e74726163740000000000000081525060400191505060405180910390fd5b80600560008473ffffffffffffffffffffffffffffffffffffffff1673ffffffffffffffffffffffffffffffffffffffff16815260200190815260200160002060000160006101000a81548160ff0219169083151502179055506128f26001805461353190919063ffffffff16565b6001819055505050565b60011515600060149054906101000a900460ff1615151415156129ad576040517f08c379a00000000000000000000000000000000000000000000000000000000081526004018080602001828103825260258152602001807f436f6e74726163742069732063757272656e746c79206e6f74206f706572617481526020017f696f6e616c00000000000000000000000000000000000000000000000000000081525060400191505060405180910390fd5b60011515600360003373ffffffffffffffffffffffffffffffffffffffff1673ffffffffffffffffffffffffffffffffffffffff16815260200190815260200160002060009054906101000a900460ff161515141515612a9b576040517f08c379a00000000000000000000000000000000000000000000000000000000081526004018080602001828103825260398152602001807f41646472657373206973206e6f7420617574686f72697a656420746f206d616b81526020017f652063616c6c6573206f6e206461746120636f6e74726163740000000000000081525060400191505060405180910390fd5b816001151560046000836000191660001916815260200190815260200160002060000160009054906101000a900460ff161515141515612b43576040517f08c379a00000000000000000000000000000000000000000000000000000000081526004018080602001828103825260148152602001807f466c6967687420446f65736e277420657869737400000000000000000000000081525060200191505060405180910390fd5b8160046000856000191660001916815260200190815260200160002060010181905550505050565b678ac7230489e8000081565b600080600080600060011515600360003373ffffffffffffffffffffffffffffffffffffffff1673ffffffffffffffffffffffffffffffffffffffff16815260200190815260200160002060009054906101000a900460ff161515141515612c6d576040517f08c379a00000000000000000000000000000000000000000000000000000000081526004018080602001828103825260398152602001807f41646472657373206973206e6f7420617574686f72697a656420746f206d616b81526020017f652063616c6c6573206f6e206461746120636f6e74726163740000000000000081525060400191505060405180910390fd5b60046000876000191660001916815260200190815260200160002060000160009054906101000a900460ff166004600088600019166000191681526020019081526020016000206001015460046000896000191660001916815260200190815260200160002060020160009054906101000a900460ff16600460008a6000191660001916815260200190815260200160002060030154600460008b60001916600019168152602001908152602001600020600401549450945094509450945091939590929450565b6000806000612d42613597565b60011515600060149054906101000a900460ff161515141515612df3576040517f08c379a00000000000000000000000000000000000000000000000000000000081526004018080602001828103825260258152602001807f436f6e74726163742069732063757272656e746c79206e6f74206f706572617481526020017f696f6e616c00000000000000000000000000000000000000000000000000000081525060400191505060405180910390fd5b60011515600360003373ffffffffffffffffffffffffffffffffffffffff1673ffffffffffffffffffffffffffffffffffffffff16815260200190815260200160002060009054906101000a900460ff161515141515612ee1576040517f08c379a00000000000000000000000000000000000000000000000000000000081526004018080602001828103825260398152602001807f41646472657373206973206e6f7420617574686f72697a656420746f206d616b81526020017f652063616c6c6573206f6e206461746120636f6e74726163740000000000000081525060400191505060405180910390fd5b600560008673ffffffffffffffffffffffffffffffffffffffff1673ffffffffffffffffffffffffffffffffffffffff168152602001908152602001600020606060405190810160405290816000820160009054906101000a900460ff161515151581526020016000820160019054906101000a900460ff161515151581526020016002820154815250509050806000015181602001518260400151935093509350509193909250565b600060011515600360003373ffffffffffffffffffffffffffffffffffffffff1673ffffffffffffffffffffffffffffffffffffffff16815260200190815260200160002060009054906101000a900460ff16151514151561307b576040517f08c379a00000000000000000000000000000000000000000000000000000000081526004018080602001828103825260398152602001807f41646472657373206973206e6f7420617574686f72697a656420746f206d616b81526020017f652063616c6c6573206f6e206461746120636f6e74726163740000000000000081525060400191505060405180910390fd5b600060149054906101000a900460ff16905090565b600060046000846000191660001916815260200190815260200160002060050160008373ffffffffffffffffffffffffffffffffffffffff1673ffffffffffffffffffffffffffffffffffffffff16815260200190815260200160002060009054906101000a900460ff16905092915050565b600060011515600060149054906101000a900460ff1615151415156131b6576040517f08c379a00000000000000000000000000000000000000000000000000000000081526004018080602001828103825260258152602001807f436f6e74726163742069732063757272656e746c79206e6f74206f706572617481526020017f696f6e616c00000000000000000000000000000000000000000000000000000081525060400191505060405180910390fd5b60011515600360003373ffffffffffffffffffffffffffffffffffffffff1673ffffffffffffffffffffffffffffffffffffffff16815260200190815260200160002060009054906101000a900460ff1615151415156132a4576040517f08c379a00000000000000000000000000000000000000000000000000000000081526004018080602001828103825260398152602001807f41646472657373206973206e6f7420617574686f72697a656420746f206d616b81526020017f652063616c6c6573206f6e206461746120636f6e74726163740000000000000081525060400191505060405180910390fd5b600560008473ffffffffffffffffffffffffffffffffffffffff1673ffffffffffffffffffffffffffffffffffffffff16815260200190815260200160002060010160008373ffffffffffffffffffffffffffffffffffffffff1673ffffffffffffffffffffffffffffffffffffffff16815260200190815260200160002060009054906101000a900460ff16905092915050565b600060011515600060149054906101000a900460ff1615151415156133ec576040517f08c379a00000000000000000000000000000000000000000000000000000000081526004018080602001828103825260258152602001807f436f6e74726163742069732063757272656e746c79206e6f74206f706572617481526020017f696f6e616c00000000000000000000000000000000000000000000000000000081525060400191505060405180910390fd5b60011515600360003373ffffffffffffffffffffffffffffffffffffffff1673ffffffffffffffffffffffffffffffffffffffff16815260200190815260200160002060009054906101000a900460ff1615151415156134da576040517f08c379a00000000000000000000000000000000000000000000000000000000081526004018080602001828103825260398152602001807f41646472657373206973206e6f7420617574686f72697a656420746f206d616b81526020017f652063616c6c6573206f6e206461746120636f6e74726163740000000000000081525060400191505060405180910390fd5b600560008373ffffffffffffffffffffffffffffffffffffffff1673ffffffffffffffffffffffffffffffffffffffff16815260200190815260200160002060000160019054906101000a900460ff169050919050565b6000818301905082811015151561354457fe5b80905092915050565b6000818381151561355a57fe5b04905092915050565b60a0604051908101604052806000151581526020016000815260200160001515815260200160008152602001600081525090565b6060604051908101604052806000151581526020016000151581526020016000815250905600a165627a7a72305820a672b19e96cf38e8d9c94d664f4f2c3005a6c152fb11c4841eb4ec0507d747dd0029",
  "source": "pragma solidity ^0.4.25;\r\n\r\nimport \"../node_modules/openzeppelin-solidity/contracts/math/SafeMath.sol\";\r\n\r\ncontract FlightSuretyData {\r\n    using SafeMath for uint256;\r\n\r\n/*****************Contact Variables*******************/\r\n/**                                                  */\r\n/*****************************************************/\r\n    address private contractOwner;\r\n    bool private operational = true;\r\n    uint256 public registeredCount = 0;\r\n\r\n    uint256 public constant AirlineRegistrationFee = 10 ether;\r\n\r\n    struct airliner {\r\n      bool registered;\r\n      bool hasPaid;\r\n      mapping(address => bool) voters;\r\n      uint256 votes;\r\n    }\r\n\r\n    struct clientFlights {\r\n      bool exist;\r\n      uint256 status;\r\n      bool registered;\r\n      uint256 departuretime;\r\n      uint256 price;\r\n      mapping(address => bool) didByInsurance;\r\n    }\r\n\r\n    mapping(address => uint256) private credit;\r\n    mapping(address => bool) private authorizeCallers;\r\n    mapping(bytes32 => clientFlights) private flights;\r\n\r\n    mapping(address => airliner) private registerQue;\r\n/*****************************************************/\r\n\r\n/****************Contract Constructor*****************/\r\n/**                                                  */\r\n/*****************************************************/\r\n  constructor() public\r\n    {\r\n        contractOwner = msg.sender;\r\n        airliner memory NewAirline;\r\n        NewAirline.registered = true;\r\n        NewAirline.hasPaid = true;\r\n        NewAirline.votes = 0;\r\n        registerQue[msg.sender] = NewAirline;\r\n        registeredCount = registeredCount.add(1);\r\n    }\r\n\r\n/*****************************************************/\r\n\r\n/**************Contract Modifiers*********************/\r\n/**                                                  */\r\n/*****************************************************/\r\n    modifier isAuthorized()\r\n    {\r\n      require(authorizeCallers[msg.sender] == true, \"Address is not authorized to make calles on data contract\");\r\n      _;\r\n    }\r\n\r\n    modifier requireIsOperational()\r\n    {\r\n        require(operational == true, \"Contract is currently not operational\");\r\n        _;  // All modifiers require an \"_\" which indicates where the function body will be added\r\n    }\r\n\r\n    modifier requireContractOwner()\r\n    {\r\n        require(msg.sender == contractOwner, \"Caller is not contract owner\");\r\n        _;\r\n    }\r\n\r\n    modifier wasInsuranced(bytes32 key, address _address)\r\n    {\r\n      require(flights[key].didByInsurance[_address] == true, \"Address is not insuranced or was  already refunded for this flight\");\r\n      _;\r\n    }\r\n\r\n    modifier isNotInsuranced(bytes32 key, address _address)\r\n    {\r\n      require(flights[key].didByInsurance[_address] == false, \"Address already has insurance for this flight\");\r\n      _;\r\n    }\r\n\r\n    modifier flightExists(bytes32 key)\r\n    {\r\n      require(flights[key].exist == true, \"Flight Doesn't exist\");\r\n      _;\r\n    }\r\n\r\n    modifier flightstatus(bytes32 key)\r\n    {\r\n      require(flights[key].status != 10, \"Flight was on time no insurance for you\");\r\n      _;\r\n    }\r\n\r\n    modifier timesUp(bytes32 key)\r\n    {\r\n      require(flights[key].departuretime >= now, \"Too late to buy insurance for this flight\");\r\n      _;\r\n    }\r\n\r\n    modifier toSoon(bytes32 key)\r\n    {\r\n      require(flights[key].departuretime < now, \"Flight must be passed depature data for insurance payout\");\r\n      _;\r\n    }\r\n\r\n    modifier minimumFundBalance()\r\n    {\r\n      require(address(this).balance > 10 ether, \"Contract has insufficient funds for withdraw\");\r\n      _;\r\n    }\r\n    modifier checkBalance(address _address)\r\n    {\r\n      require(credit[_address] > 0, \"Address has no credit\");\r\n      _;\r\n    }\r\n\r\n/*****************************************************/\r\n\r\n/****************Contract Functions*******************/\r\n/**                                                  */\r\n/*****************************************************/\r\n    function hasPaid(address _address) external view\r\n    requireIsOperational()\r\n    isAuthorized()\r\n    returns(bool)\r\n    {\r\n    return (registerQue[_address].hasPaid);\r\n    }\r\n\r\n    function changeOperation() external\r\n    requireContractOwner()\r\n    {\r\n      if(operational == true){\r\n        operational = false;\r\n      }else{\r\n        operational = true;\r\n      }\r\n    }\r\n\r\n    function isOperational() external view\r\n    isAuthorized()\r\n    returns(bool)\r\n    {\r\n      return (operational);\r\n    }\r\n\r\n    function authorizeCaller(address addressToAuthorize) external\r\n    requireContractOwner()\r\n    {\r\n      authorizeCallers[addressToAuthorize] = true;\r\n    }\r\n\r\n\r\n    function hasAlreadyVoted(address addressToPromote, address promoter) external view\r\n    requireIsOperational()\r\n    isAuthorized()\r\n    returns(bool)\r\n      {\r\n        return (registerQue[addressToPromote].voters[promoter]);\r\n      }\r\n\r\n    function getRegistrationCount() external view\r\n    requireIsOperational()\r\n    isAuthorized()\r\n    returns(uint256)\r\n      {\r\n        return (registeredCount);\r\n      }\r\n\r\n    function isRegisterAirline(address addressToCheck) external view\r\n    requireIsOperational()\r\n    isAuthorized()\r\n    returns(bool registered, bool paid ,uint256 votes)\r\n      {\r\n        airliner memory addressFetched = registerQue[addressToCheck];\r\n        return (addressFetched.registered,addressFetched.hasPaid,addressFetched.votes);\r\n      }\r\n    function isInsured(bytes32 key, address _address) external view returns(bool)\r\n    {\r\n      return (flights[key].didByInsurance[_address]);\r\n    }\r\n\r\n    function getTicketPriceWithInsurance(bytes32 key) external view\r\n    requireIsOperational()\r\n    isAuthorized()\r\n    flightExists(key)\r\n    returns(uint256 ticketPrice, uint256 ticketPriceWithInsurance)\r\n    {\r\n      uint256 priceWithInsurance = flights[key].price.add(AirlineRegistrationFee);\r\n      return (flights[key].price,priceWithInsurance);\r\n    }\r\n\r\n    function getFlight(bytes32 key) external view\r\n    isAuthorized()\r\n    returns(bool exist,uint256 status,bool registered,uint256 departuretime,uint256 price)\r\n    {\r\n      return (flights[key].exist,flights[key].status,flights[key].registered,flights[key].departuretime,flights[key].price);\r\n    }\r\n\r\n    function updateFlightStatus(bytes32 key, uint256 status) external\r\n    requireIsOperational()\r\n    isAuthorized()\r\n    flightExists(key)\r\n    {\r\n      flights[key].status = status;\r\n    }\r\n\r\n    function getCurrentConsieses() external view\r\n    requireIsOperational()\r\n    isAuthorized()\r\n    returns(uint256)\r\n      {\r\n        uint256 consieses = registeredCount.div(2);\r\n        return (consieses);\r\n      }\r\n\r\n    function changeRegisteration(address addressToRegister,bool registrationState) external\r\n    requireIsOperational()\r\n    isAuthorized()\r\n      {\r\n        registerQue[addressToRegister].registered = registrationState;\r\n        registeredCount = registeredCount.add(1);\r\n      }\r\n\r\n    function addVote(address addressToPromote, address promoter) external\r\n    requireIsOperational()\r\n    isAuthorized()\r\n      {\r\n        registerQue[addressToPromote].voters[promoter] = true;\r\n        registerQue[addressToPromote].votes = registerQue[addressToPromote].votes.add(1);\r\n      }\r\n\r\n    function payFee(address addressThatPaid) external payable\r\n    requireIsOperational()\r\n      isAuthorized()\r\n      {\r\n        registerQue[addressThatPaid].hasPaid = true;\r\n      }\r\n\r\n    function addRegisteredFlight(bytes32 key, uint256 price, uint256 time) external\r\n    requireIsOperational()\r\n    isAuthorized()\r\n      {\r\n        clientFlights memory registeredFlight;\r\n        registeredFlight.exist = true;\r\n        registeredFlight.status = 10;\r\n        registeredFlight.registered = true;\r\n        registeredFlight.price = price;\r\n        registeredFlight.departuretime = time;\r\n        flights[key] = registeredFlight;\r\n      }\r\n\r\n\r\n    function buy(bytes32 key, address buyer, bool withInsurance) external payable\r\n    requireIsOperational()\r\n    isAuthorized()\r\n    isNotInsuranced(key, buyer)\r\n    flightExists(key)\r\n    timesUp(key)\r\n      {\r\n        if(withInsurance == true){\r\n          flights[key].didByInsurance[buyer] = true;\r\n        }\r\n      }\r\n\r\n    function creditInsurees(address _address) external view\r\n    requireIsOperational()\r\n    isAuthorized()\r\n    returns (uint256)\r\n      {\r\n        return (credit[_address]);\r\n      }\r\n\r\n    function pay(address _address) external\r\n    requireIsOperational()\r\n    isAuthorized()\r\n    checkBalance(_address)\r\n    minimumFundBalance()\r\n      {\r\n       _address.transfer(credit[_address]);\r\n       credit[_address] = 0;\r\n      }\r\n\r\n    function fund(bytes32 key,address _address) public\r\n    requireIsOperational()\r\n    isAuthorized()\r\n    toSoon(key)\r\n    wasInsuranced(key,_address)\r\n    flightstatus(key)\r\n      {\r\n        flights[key].didByInsurance[_address] = false;\r\n        uint256 half = flights[key].price.div(2);\r\n        uint256 amountTofund = flights[key].price.add(half);\r\n        credit[_address] += amountTofund;\r\n      }\r\n\r\n    function getFlightKey(address airline,string memory flight,uint256 timestamp) internal pure returns(bytes32)\r\n      {\r\n        return keccak256(abi.encodePacked(airline, flight, timestamp));\r\n      }\r\n\r\n    function() external payable\r\n    {\r\n      //fund();\r\n    }\r\n/*****************************************************/\r\n\r\n}\r\n",
  "sourcePath": "/home/burp/FlightSurety/contracts/FlightSuretyData.sol",
  "compiler": {
    "name": "solc",
    "version": "0.4.26+commit.4563c3fc.Emscripten.clang"
  },
  "schemaVersion": "3.0.1",
  "updatedAt": "2021-04-27T20:30:50.098Z",
  "devdoc": {
    "methods": {}
  },
  "userdoc": {
    "methods": {
      "hasPaid(address)": {
        "notice": "**************************************************"
      }
    }
  }
}